:03000000020EF9F4
:0C0EF900787FE4F6D8FD75815A020F40A6
:0E11960064697374616E63653A253362750097
:0A114500C10902220000022400008C
:100E3C0012115E12117312101A3009FDC209120F31
:100E4C00858F3D7541FF754211754396853D447BF9
:100E5C00007A00792912085C7B007A007929E4F584
:100E6C0042FD120FD3D20AAF3D7E00D3EF941E7415
:100E7C008094804004C20A80C0C3EF941EEE64804C
:100E8C009480500B7526097527C475287880AAC3E1
:100E9C00EF9419EE64809480500B7526077527D05B
:100EAC007528648094C3EF9414EE64809480500C85
:100EBC007526057527DC752850020E45C3EF940F77
:100ECC00EE64809480500C7526037527E8752832E3
:100EDC00020E45C3EF940AEE648094804003020E28
:0D0EEC004575260275275875281E020E4513
:03000B00020D776C
:100D7700C0E0C0F0C083C082C0D075D000C000C042
:0D0D870001C002C003C004C005C006C007C3
:100D9400758A18758CFC0523E52370020522FFAEC5
:100DA40022BE030BBFE808752200752300D2093068
:100DB4000A3C0525E52570020524D394F4E5249422
:100DC400015016E52530E006D2B37D018004C2B39C
:100DD400E4FD7F0412104C8015C3E5259527E52416
:100DE40095265004D2B38006752400752500D3E5FA
:100DF400259528E524940050047D018013E5287589
:100E0400F002A4FFD3E5259FE52495F05009E4FD05
:0D0E14007F0412104C800675240075250027
:100E2100D007D006D005D004D003D002D001D00025
:0B0E3100D0D0D082D083D0F0D0E032CF
:0311A900DFFE2244
:1010E600E4FDFCC3ED9FEC9E5015E4FBFA0BBB0040
:0F10F600010AEB64734A70F50DBD00010C80E434
:0111050022C7
:10115E005389F0438901758A18758CFCC28DD28C27
:05116E00D2A9D2AF225E
:1011730053890F438910E4F58BF58DC28FC2ABC23F
:021183008E22BA
:05114F00011D00C10AB2
:10104C00ED6016147024EF602114FFF87401088011
:10105C0002C333D8FCF452A022EF600E14FFF874D4
:0B106C0001088002C333D8FC42A02220
:101126007580FFC2A67F057E001210E6D2A5D2A763
:0E1136007F057E001210E6E5805480FFC2A700
:011144002288
:10109E008F44121126EF640160F8C2A67F017E0014
:1010AE001210E6C2A5D2A78544807F017E001210E1
:0410BE00E6C2A722BD
:1010C2008F44121126EF640160F8D2A67F017E00E0
:1010D2001210E6C2A5D2A78544807F017E001210BD
:0410E200E6C2A72299
:10118500EF60047F4080027F00EF24802DFF021076
:011195009EBB
:10101A007F3812109E7F3812109E7F3812109E7FE2
:10102A000112109E7F0612109E7F017E001210E6AA
:10103A007F0C12109EE4FDFF1211857F057E0002CF
:02104A0010E6AE
:080FD3008B3E8A3F89408D41ED
:100FDB00E4F543AD428030AB3EAA3FA94085438246
:100FEB00758300120C72FF60251210C205437F053A
:100FFB007E001210E6E5422543FFE433FEEF64105A
:0E100B004E70D4634101FDAF4112118580C9C2
:0110190022B4
:0511A4007F0102109E16
:100F8500E4F53EF53FC2A1D2A17F141211A9C2A179
:100F950030A0FDD28E30A003308FFAC28E308F0A7A
:100FA500C28F753E00753FFF8021AF8DEFFEAD8B83
:100FB5007C00E42DF53FEC3EF53EFEAF3F7D3B1258
:0D0FC5000CC18E3E8F3FE4F58BF58DAF3FE4
:010FD20022FC
:09115400011C0002080000C10B9F
:060B5C008B528A538954FC
:100B6200E4F558F559C3E55894087480948040031D
:100B7200020C71AB52AA53A9548559827583001293
:100B82000C72120D160C3E200C392D0BD0300BD5E9
:100B9200310BDA320BDF330BE4340BE9350BEE3673
:100BA2000BF3370BF8380BFD390C02410C07420CE2
:100BB2000C430C11440C16450C1B460C20480C250A
:100BC2004C0C2A4E0C2F500C345500000C41755A17
:100BD2003F806C755A068067755A5B8062755A4F02
:100BE200805D755A668058755A6D8053755A7D803E
:100BF2004E755A078049755A7F8044755A6F803FF7
:100C0200755A77803A755A7C8035755A39803075B5
:100C12005A5E802B755A798026755A718021755AD1
:100C220076801C755A388017755A378012755A7338
:100C3200800D755A3E8008755A408003E4F55A8546
:100C42005982758300A3AB52AA53A954120C72B4F1
:100C52002E05435A800559AB55AA56A95785588285
:0F0C6200758300E55A120C9F05580559020B6760
:010C71002260
:10110600E4F580C374079D25E025E0FFE5A054E3E0
:101116004FF5A0AF058F82758300120C72F5802201
:100F0500020E3CE493A3F8E493A34003F68001F2B8
:100F150008DFF48029E493A3F85407240CC8C333ED
:100F2500C4540F4420C8834004F456800146F6DFBC
:100F3500E4800B0102040810204080901145E47EF6
:100F4500019360BCA3FF543F30E509541FFEE493B1
:100F5500A360010ECF54C025E060A840B8E493A378
:100F6500FAE493A3F8E493A3C8C582C8CAC583CAA3
:100F7500F0A3C8C582C8CAC583CADFE9DEE780BE5B
:01115D000091
:100C7200BB010CE58229F582E5833AF583E0225037
:100C820006E92582F8E622BBFE06E92582F8E22281
:0D0C9200E58229F582E5833AF583E493229B
:100C9F00F8BB010DE58229F582E5833AF583E8F08B
:100CAF00225006E92582C8F622BBFE05E92582C837
:020CBF00F2221F
:100CC100BC000BBE0029EF8DF084FFADF022E4CC17
:100CD100F875F008EF2FFFEE33FEEC33FCEE9DECE0
:100CE100984005FCEE9DFE0FD5F0E9E4CEFD22ED26
:100CF100F8F5F0EE8420D21CFEADF075F008EF2F70
:100D0100FFED33FD4007985006D5F0F222C398FD60
:050D11000FD5F0EA22FD
:100D1600D083D082F8E4937012740193700DA3A36C
:100D260093F8740193F5828883E473740293686080
:060D3600EFA3A3A380DF80
:10080000E54D2441F8E6054D22783E300702784157
:10081000E475F001120D67020D3C2000EB7F2ED233
:10082000008018EF540F2490D43440D4FF30040BD0
:10083000EF24BFB41A0050032461FFE54E60021597
:100840004E0551E5517002055030070D783EE475B4
:10085000F001120D67EF020D550210777403D207F5
:100860008003E4C207F54D8B3E8A3F8940E4F54E94
:10087000F550F551E54E60077F2012083B80F57575
:100880004FFFC201C200C202C203C205C206C208B3
:10089000120809FF700D3007057F0012084CAF5198
:1008A000AE5022B4255FC2D5C204120809FF24D07D
:1008B000B40A00501A75F00A784E30D50508B6FF14
:1008C0000106C6A426F620D5047002D20380D924DE
:1008D000CFB41A00EF5004C2E5D204020A4CD20190
:1008E00080C6D20080C0D20280BCD2D580BAD205E8
:1008F00080B47F2012083B2002077401B54E0040EF
:10090000F1120800FF12083B020874D208D20680D8
:1009100095120800FB120800FA120800F94A4B7001
:1009200006791D7A0B7BFF20022EE54E602A7E00A1
:100930008E82758300120C7260060EEE654F70F0A9
:10094000C2D5EBC0E0EAC0E0E9C0E0EE120A93D005
:10095000E0F9D0E0FAD0E0FB120D3CFF60AAEBC05A
:10096000E0EAC0E0E9C0E012083BD0E02401F9D0A1
:10097000E03400FAD0E0FBE54F0460DCD54FD980CD
:10098000877BFF7A0A798FD202809C791080027966
:1009900008C206C2088008D2D5790A8004790AC242
:1009A000D5E54F047002F54FE4FAFDFEFF12080092
:1009B000FC7B08200113120800FD7B1030000A1296
:1009C0000800FE120800FF7B20EC3382D592D55040
:1009D00013C3E43000069FFFE49EFEE42001039D64
:1009E000FDE49CFCE4CBF8C201EC700CCFCECDCC86
:1009F000E824F8F870F38017C3EF33FFEE33FEED11
:100A000033FDEC33FCEB33FB994002FB0FD8E9EBF1
:100A1000300105F8D0E0C448B201C0E00AEC4D4E08
:100A20004F78207B0070C2EAB54F0040BCC0E01296
:100A30000A95D0F0D0E0200104C4C0E0C4B201C0E7
:100A4000F0120824D0F0D5F0EB020874120D16094C
:100A50001153098B5808E24C08DE42098F4F099761
:0F0A60004409974908F743099D550981460981C3
:100A6F00450981470B3D5008E62D08EA2E090D2B4D
:100A7F0008EE23090B200B262A08A64800000905BB
:100A8F003F3F3F00790AA2D5200314300509B91062
:100A9F00020404B9080104A2D52006025001042063
:100AAF0002689202B54E005034C0E07F2030031927
:100ABF007F30A20272067205500F120AECC202C2F8
:100ACF0006C205C2087F30800F300503E9C0E0126F
:100ADF00083B300503D0E0F9D0E0B54ECC30051718
:100AEF007F30B9100C12083B7F583004077F788095
:100AFF0003B9080312083B3002057F2D02083B7F24
:100B0F00202008F87F2B2006F322920280CF286E38
:100B1F00756C6C2900D2011208003001F8C20178FF
:100B2F004E30D50108F60208A62D50434958120839
:100B3F00002403B405004001E4900B389312082CF5
:0D0B4F00743A12082CD203754E0402098B73
:100D3C00BB010689828A83E0225002E722BBFE02B5
:090D4C00E32289828A83E49322E8
:100D5500BB010689828A83F0225002F722BBFE017D
:020D6500F32277
:100D6700FAE6FB0808E6F925F0F618E6CA3AF6228D
:10107700EFB40A07740D121082740A309811A899F8
:10108700B8130CC2983098FDA899C298B811F630D9
:0710970099FDC299F59922B1
:00000001FF
