:0300000002044FA8
:0C044F00787FE4F6D8FD75812D0204963C
:06072200313233353400D2
:1005E8007F807E251204DB1205587BFF7A0779226B
:1005F800120680E522B401FBE4F522FB7A00792398
:09060800F50C7D0112058A80EA5F
:0205BB00A9078E
:1005BD00E4FBFAE9FF7E007C037DE81203AFD3EB89
:1005CD009FEA9E5015E4FFFE0FBF00010EEF646F12
:0A05DD004E70F50BBB00010A80D937
:0105E70022F1
:10000300E4FDFCC3ED9FEC9E5015E4FBFA0BBB0033
:0F001300010AEB64714A70F50DBD00010C80E429
:0100220022BB
:0B070600EF1FAC0670011E4C70F622C5
:1006A1007580FFC2B47F057E00120003D2B5D2B6B9
:0E06B1007F057E00120003E5805480FFC2B674
:0106BF002218
:100638008F0E1206A1EF640160F8C2B47F017E003C
:10064800120003C2B5D2B6850E807F017E0012006B
:0406580003C2B62201
:10065C008F0E1206A1EF640160F8D2B47F017E0008
:10066C00120003C2B5D2B6850E807F017E00120047
:04067C0003C2B622DD
:1006C000EF60047F4080027F00EF24802DFF020650
:0106D00038F1
:100558007F381206387F381206387F381206387FFF
:10056800011206387F061206387F017E001200034A
:100578007F0F120638E4FDFF1206C07F057E0002D9
:0205880000036E
:08058A008B088A09890AAF05FC
:10059200E4F50DAD0C1206C0AB08AA09A90A850D37
:1005A20082758300120382FF600E12065C050D7FC6
:0805B200057E0012000380E049
:0105BA00221E
:0A07110012065C7F057E0002000363
:050728007F010206380C
:0F06D1007F101206387F2012065C7F1002063859
:0D06E000EF60047F1480027F1012063822A4
:0D06ED00EF60047F1C80027F181206382287
:04072D0025730A0026
:06071B00012D0001220087
:1004DB0053980F43985053877FC299D2AC53890FCF
:1004EB00438920EF8EF01203C1050804B0050C09F7
:1004FB0060051012C005142580000005167DE880EC
:10050B000A7DF480067DFA80027DFD8D8D8D8BD268
:03051B008ED2AFCE
:01051E0022BA
:0C06FA00C2AC8F993099FDC299D2AC229D
:100680008B088A09890AC2ACD2998B0E8A0F89100D
:100690007BFF7A07792D1200883099FDC299D2AC80
:0106A0002237
:0300230002051FB4
:0B051F00C0E0C0D075D000C000C007D5
:10052A00309822C298AF99BF2305752D00801674A2
:10053A0023BF240A252DF876007522018007252D70
:05054A00F8A607052DD5
:09054F00D007D000D0D0D0E0327A
:10045B000205E8E493A3F8E493A34003F68001F2CA
:10046B0008DFF48029E493A3F85407240CC8C333A2
:10047B00C4540F4420C8834004F456800146F6DF71
:10048B00E4800B010204081020408090071BE47EDF
:10049B00019360BCA3FF543F30E509541FFEE49366
:1004AB00A360010ECF54C025E060A840B8E493A32D
:1004BB00FAE493A3F8E493A3C8C582C8CAC583CA58
:1004CB00F0A3C8C582C8CAC583CADFE9DEE780BE10
:0107210000D7
:10038200BB010CE58229F582E5833AF583E0225030
:1003920006E92582F8E622BBFE06E92582F8E2227A
:0D03A200E58229F582E5833AF583E4932294
:1003AF00EF8DF0A4A8F0CF8CF0A428CE8DF0A42E62
:0203BF00FE221C
:1003C100D083D082F8E4937012740193700DA3A3CB
:1003D10093F8740193F5828883E473740293B5F002
:0D03E100067403936860E9A3A3A3A380D86A
:10002600E51A240EF8E6051A22780B300702780E38
:10003600E475F0011204190203EE2000EB7F2ED2C4
:10004600008018EF540F2490D43440D4FF30040BB2
:10005600EF24BFB41A0050032461FFE51B600215AC
:100066001B051EE51E7002051D30070D780BE47595
:10007600F001120419EF0204070206117403D207F5
:100086008003E4C207F51A8B0B8A0C890DE4F51B75
:10009600F51DF51EE51B60077F2012006180F575D2
:1000A6001CFFC201C200C202C203C205C206C208C8
:1000B60012002FFF700D3007057F00120072AF1E71
:1000C600AE1D22B4255FC2D5C20412002FFF24D074
:1000D600B40A00501A75F00A781B30D50508B6FF29
:1000E6000106C6A426F620D5047002D20380D924C0
:1000F600CFB41A00EF5004C2E5D204020272D20154
:1001060080C6D20080C0D20280BCD2D580BAD205C9
:1001160080B47F201200612002077401B51B0040E5
:10012600F1120026FF12006102009AD208D2068060
:1001360095120026FB120026FA120026F94A4B7089
:100146000679437A037BFF20022EE51B602A7E0098
:100156008E8275830012038260060EEE651C70F0B7
:10016600C2D5EBC0E0EAC0E0E9C0E0EE1202B9D0C9
:10017600E0F9D0E0FAD0E0FB1203EEFF60AAEBC094
:10018600E0EAC0E0E9C0E0120061D0E02401F9D065
:10019600E03400FAD0E0FBE51C0460DCD51CD98015
:1001A600877BFF7A0279B5D202809C79108002792A
:1001B60008C206C2088008D2D5790A8004790AC224
:1001C600D5E51C047002F51CE4FAFDFEFF120026BC
:1001D600FC7B08200113120026FD7B1030000A125A
:1001E6000026FE120026FF7B20EC3382D592D550E6
:1001F60013C3E43000069FFFE49EFEE42001039D46
:10020600FDE49CFCE4CBF8C201EC700CCFCECDCC67
:10021600E824F8F870F38017C3EF33FFEE33FEEDF2
:1002260033FDEC33FCEB33FB994002FB0FD8E9EBD3
:10023600300105F8D0E0C448B201C0E00AEC4D4EEA
:100246004F78207B0070C2EAB51C0040BCC0E012AB
:1002560002BBD0F0D0E0200104C4C0E0C4B201C0AB
:10026600F012004AD0F0D5F0EB02009A12042901F0
:10027600375301B15801084C01044201B54F01BD85
:0F0286004401BD49011D4301C35501A74601A70E
:100295004501A747036350010C2D01102E01332B97
:1002A500011423013120034C2A00CC480000012B06
:1002B5003F3F3F00790AA2D5200314300509B91044
:1002C500020404B9080104A2D52006025001042045
:1002D50002689202B51B005034C0E07F203003193C
:1002E5007F30A20272067205500F120312C202C2BB
:1002F50006C205C2087F30800F300503E9C0E01251
:100305000061300503D0E0F9D0E0B51BCC3005170E
:100315007F30B9100C1200617F583004077F788058
:1003250003B908031200613002057F2D0200617FC9
:10033500202008F87F2B2006F322920280CF286E1A
:10034500756C6C2900D2011200263001F8C20178C3
:100355001B30D50108F60200CC2D50434958120038
:10036500262403B405004001E490035E9312005275
:0D037500743A120052D203751B040201B14C
:1003EE00BB010689828A83E0225002E722BBFE020D
:0903FE00E32289828A83E4932240
:10040700BB010689828A83F0225002F722BBFE01D4
:02041700F322CE
:10041900FAE6FB0808E6F925F0F618E6CA3AF622E4
:10042900D083D082F8E4937012740193700DA3A362
:1004390093F8740193F5828883E473740293686076
:06044900EFA3A3A380DF76
:10061100EFB40A07740D12061C740A309811A899D8
:10062100B8130CC2983098FDA899C298B811F63049
:0706310099FDC299F5992221
:00000001FF
