:030000000201E812
:0C01E800787FE4F6D8FD75812902022F13
:1002DA00EF14602F04705875217FE4F522C3E522DC
:1002EA009408748094805047852190AF217801EF5B
:1002FA0008800103D8FDF5217F2C7E011204D30565
:10030A002280DA7521FEE4F522C3E522940874807E
:10031A009480501B852190AF217801EF088001233A
:10032A00D8FDF5217F2C7E011204D3052280DA75CF
:02033A0090FF32
:01033C00229E
:10053100E4F520AF201202DA0520AF201202DA051D
:0B05410020E520640270ECF52080E84B
:1005A00020A40C7F0A7E001204D320A402D322C30D
:0105B0002228
:1005790020A40F7F0A7E001204D320A40530A4FD15
:04058900D322C32294
:10014800000001060126014A015D018801B801EE9F
:10015800020B024B029302BA0310037003DC04166D
:10016800049705260575062006E007B808090A0859
:1001780008090A080A0B0C0A0B0C0C0D0C0B0A08D0
:100188000C0D0C0B0A080A05080A050802020202EF
:100198000202020202020402020401010101020237
:1001A80001010101020202020402020420050506FF
:1001B80005080705050605090805050C0A080706C8
:1001C8000B0B0A08090802010303030402010303D5
:1001D80003040201030303030302010303030419D5
:080274008E088F098C0A8D0B26
:10027C00AE0AAF0BAB07AA06E4F9F87F507EC3FDBC
:10028C00FC12038C8E0C8F0DAE0AAF0BAC08AD09B3
:10029C0012011BE47BE87A03F9F81200898E108FA7
:1002AC0011E4F50EF50FC3E50F9511E50E95105001
:1002BC001CD2A3AF0DAE0C1205FCC2A3AF0DAE0C3D
:0D02CC001205FC050FE50F70DD050E80D951
:0102D9002202
:100563007DF47C017FF47E011202747DE87C037FBD
:06057300F47E0102027497
:06033D008B128A138914E3
:10034300E4F519E519C39518503EAB12AA13A91485
:1003530085198275830012000E75F0FAA4FFAEF0C2
:10036300AB15AA16A91785198275830012000E25ED
:10037300E02448F582E43401F583E493FC740193AB
:08038300FD120274051980BB94
:01038B00224F
:02043300A90717
:10043500E4FBFAE9FF7E007C037DE812003BD3EB89
:100445009FEA9E5015E4FFFE0FBF00010EEF646F9B
:0A0455004E70F50BBB00010A80D9C0
:01045F00227A
:1004D300E4FDFCC3ED9FEC9E5015E4FBFA0BBB005F
:0F04E300010AEB64714A70F50DBD00010C80E455
:0104F20022E7
:0B05FC00EF1FAC0670011E4C70F622D1
:1005B1003F065B4F666D7D077F6F777C395E797192
:0105C1000039
:10046000EF14600F14601424027018ED9005B1931E
:10047000F58022ED9005B193F59022ED9005B193B2
:0B048000F5A022ED9005B193F5B0222D
:06000300012600012500AA
:10058D005389F0438901758C3C758AB0D28CD2AFFA
:03059D00D2A922BE
:03000B000204F3F9
:1004F300C0E0758C3C758AB00525E5256414700C45
:0F050300F5250526E52664097002F526D0E032BD
:100512007580FFC2B47F057E001204D3D2B5D2B675
:0E0522007F057E001204D3E5805480FFC2B630
:0105300022A8
:10048B008F27120512EF640160F8C2B47F017E0062
:10049B001204D3C2B5D2B68527807F017E00120429
:0404AB00D3C2B622E0
:1004AF008F28120512EF640160F8D2B47F017E002D
:1004BF001204D3C2B5D2B68528807F017E00120404
:0404CF00D3C2B622BC
:1005C200EF60047F4080027F00EF24802DFF020451
:0105D2008B9D
:1003D0007F3812048B7F3812048B7F3812048B7F96
:1003E0000112048B7F0612048B7F017E001204D35E
:1003F0007F0C12048BE4FDFF1205C27F057E000214
:0204000004D323
:080402008B1A8A1B891CAF054F
:10040A00E4F51FAD1E1205C2AB1AAA1BA91C851F53
:10041A008275830012000EFF600E1204AF051F7F63
:08042A00057E001204D380E0FE
:0104320022A7
:0A0607001204AF7F057E000204D349
:10054C008F29AE03AF05AD061205C2AF291204AF59
:07055C007F057E000204D3BD
:050611007F0102048BD3
:0F05D3007F1012048B7F201204AF7F1002048B65
:0D05E200EF60047F1480027F1012048B2252
:0D05EF00EF60047F1C80027F1812048B2235
:1001F400020531E493A3F8E493A34003F68001F2EB
:1002040008DFF48029E493A3F85407240CC8C3330B
:10021400C4540F4420C8834004F456800146F6DFDA
:10022400E4800B0102040810204080900003E47E67
:10023400019360BCA3FF543F30E509541FFEE493CF
:10024400A360010ECF54C025E060A840B8E493A396
:10025400FAE493A3F8E493A3C8C582C8CAC583CAC1
:10026400F0A3C8C582C8CAC583CADFE9DEE780BE79
:0100090000F6
:10000E00BB010CE58229F582E5833AF583E02250A7
:10001E0006E92582F8E622BBFE06E92582F8E222F1
:0D002E00E58229F582E5833AF583E493220B
:10003B00EF8DF0A4A8F0CF8CF0A428CE8DF0A42ED9
:02004B00FE2293
:10004D0075F008758200EF2FFFEE33FECD33CDCC6A
:10005D0033CCC58233C5829BED9AEC99E5829840ED
:10006D000CF582EE9BFEED9AFDEC99FC0FD5F0D6CA
:10007D00E4CEFBE4CDFAE4CCF9A88222B800C1B9F4
:10008D000059BA002DEC8BF084CFCECDFCE5F0CB32
:10009D00F97818EF2FFFEE33FEED33FDEC33FCEB6B
:1000AD0033FB10D703994004EB99FB0FD8E5E4F926
:1000BD00FA227818EF2FFFEE33FEED33FDEC33FC13
:1000CD00C933C910D7059BE99A4007EC9BFCE99A07
:1000DD00F90FD8E0E4C9FAE4CCFB2275F010EF2F4C
:1000ED00FFEE33FEED33FDCC33CCC833C810D7074C
:1000FD009BEC9AE899400AED9BFDEC9AFCE899F887
:0E010D000FD5F0DAE4CDFBE4CCFAE4C8F92219
:10038C00C2D5E830E70FB2D5E4C39BFBE49AFAE49C
:10039C0099F9E498F8EC30E717B2D51203C21200C1
:1003AC0089E4C39BFBE49AFAE499F9E498F8800396
:1003BC0012008930D50DE4C39FFFE49EFEE49DFD41
:0403CC00E49CFC228F
:10011B00EC8EF0A4CCC5F0CCCDF8EFA4CEC5F02D71
:10012B00FDE43CFCE8A42EC8C5F03DFDE43CFCEF2F
:0D013B00A4FFE5F028FEE43DFDE43CFC22BD
:00000001FF
