:0300000002000EED
:0C000E00787FE4F6D8FD75810F020055E4
:1001E7001201FFE50F75F008A4249AF9740035F0A1
:0801F700FA7BFF12013180EBDD
:02016F00A907DE
:10017100E4FBFAE9FF7E007C037DE812011FD3EB6B
:100181009FEA9E5015E4FFFE0FBF00010EEF646F62
:0A0191004E70F50BBB00010A80D987
:01019B002241
:1001C700E4FDFCC3ED9FEC9E5015E4FBFA0BBB006E
:0F01D700010AEB64714A70F50DBD00010C80E464
:0101E60022F6
:0B021200EF1FAC0670011E4C70F622BE
:10009A001824242424241800080C080808081C0022
:1000AA001824201008043C001824201820241800C2
:1000BA0010181814143C10003C04041C20201C00C6
:1000CA001824041C242418003C24201008080800C2
:1000DA00182424182424180018242438202418004A
:0800EA000066FFFF7E3C1800D8
:060131008B088A09890A0F
:10013700750CFEE4F50B850C90AB08AA09A90A8596
:100147000B827583001200F2F5B0AF0C7801EF084F
:10015700800123D8FDF50C7F037E001201C7050B34
:07016700E50BC3940840CF33
:01016E00226E
:07000300010F00020D0000D7
:1001FF005389F0438901758C3C758AB0D28CD2AF8C
:03020F00D2A9224F
:03000B0002019C53
:04019C00C0E0C0D02F
:1001A000758C3C758AB0050EE50E7002050D641461
:1001B000450D700EF50DF50E050FE50FB40A03752C
:0201C0000F002E
:0501C200D0D0D0E032B6
:10001A000201E7E493A3F8E493A34003F68001F214
:10002A0008DFF48029E493A3F85407240CC8C333E7
:10003A00C4540F4420C8834004F456800146F6DFB6
:10004A00E4800B0102040810204080900003E47E43
:10005A00019360BCA3FF543F30E509541FFEE493AB
:10006A00A360010ECF54C025E060A840B8E493A372
:10007A00FAE493A3F8E493A3C8C582C8CAC583CA9D
:10008A00F0A3C8C582C8CAC583CADFE9DEE780BE55
:01000A0000F5
:1000F200BB010CE58229F582E5833AF583E02250C3
:1001020006E92582F8E622BBFE06E92582F8E2220C
:0D011200E58229F582E5833AF583E4932226
:10011F00EF8DF0A4A8F0CF8CF0A428CE8DF0A42EF4
:02012F00FE22AE
:00000001FF
