:03000000020B38B8
:0C0B3800787FE4F6D8FD75817D020B7F0C
:100FEF008F1FC2B57F017E00120F57D2B4851F80AD
:0A0FFF007F017E00120F57C2B422DA
:101009008F7BD2B57F017E00120F57D2B4857B80CA
:0A1019007F017E00120F57C2B422BF
:07113D00EF2480FF020FEF19
:1010E200EF60047F4080027F00EF24802DFF020F1B
:0110F200EF0E
:100E12007F38120FEF7F38120FEF7F38120FEF7FFC
:100E220001120FEF7F06120FEF7F017E00120F57A4
:100E32007F0C120FEFE4FDFF1210E27F057E00022D
:020E42000F5748
:080D5B008B198A1A891B8D1CFB
:100D6300E4F51EAD1D802AAB19AA1AA91B851E82A4
:100D73007583001204A6FF601F121009051E7F056C
:100D83007E00120F57E51D251E540F70DA631C01F8
:080D9300FDAF1C1210E280CF3D
:010D9B002235
:10103D008F7CAE03AF05AD061210E2AF7C12100926
:07104D007F057E00020F5732
:0A1133001210097F057E00020F571D
:05114B007F01020FEF1F
:051150007F02020FEF19
:0F10F3007F10120FEF7F201210097F10020FEFF6
:0D110200EF60047F1480027F10120FEF22B7
:0D110F00EF60047F1C80027F18120FEF229A
:10106B008F7DE57DB401057F0F120FEFE57D7005D8
:06107B007F08120FEF22B6
:10105400D2A27F02121159C2A27F147E00120F572E
:07106400D2A27F1E02115908
:100E7300E4F545F54430A2FD7F08121159E54525F7
:100E8300E0F54530A202054520A2FD0544E544C333
:060E9300940840E1AF45A8
:010E99002236
:060C4E008B398A3A893B54
:100C540012105420A25C30A2FD7F28121159120EEA
:100C6400738F3F120E738F40120E738F41120E73E7
:100C74008F42120E738F437F19121159E53F25409D
:100C8400FFE433FE7C00EF2541FFEC3EFEEF2542FE
:100C9400FFEC3EFEEFB5431AECB50616AB39AA3AA3
:100CA400A93BE53F1204D3AB3CAA3DA93EE5411262
:020CB40004D367
:010CB600221B
:100F0E00252E306600252E316600252E32660025F0
:100F1E002E3366003F065B4F666D7D077F6F777CD5
:050F2E00395E7971003D
:080A96008F658E648D638C6294
:100A9E007566DFE4FFFEFDFCAB65AA64A963A86280
:100AAE00C31205B370177580FFD2A7856680C2A7E3
:100ABE00F580D2A6900F2293F580C2A622AF65AE26
:100ACE0064AD63AC62EC4D4E4F605E7580FFD2A795
:100ADE00856680C2A7E4F580D2A67B0AFAF9F8AF44
:100AEE0065AE64AD63AC6212052174222BF582747F
:100AFE000F3AF583E493F580C2A6AF65AE64AD639D
:100B0E00AC62E47B0AFAF9F81205218F658E648DCA
:100B1E00638C62AF667801EF08800103D8FDF5663D
:090B2E007F037E00120F57809432
:010B3700229B
:060BC4008B678A68896955
:100BCA00756ADF1210818F6BE56B60777580FFD2D3
:100BDA00A7856A80C2A7E4F580D2A6FE74FF256BBA
:100BEA00F582EE34FFF583AB67AA68A9691204A6F9
:100BFA00FF24E0602824F3601F147026156BE56B50
:100C0A007C0024FFF582EC34FFF5831204A6900ED3
:100C1A00F2934480F5808011758040800CE4F58061
:100C2A008007EF900EF293F580C2A6156BAF6A7833
:100C3A0001EF08800103D8FDF56A7F037E00120FD9
:030C4A005780854B
:010C4D002284
:080CB7008F0B8E0A8D098C08D9
:100CBF00E50C14601514601D1460252403703F7536
:100CCF0049FF754A0F754B0E801F7549FF754A0F07
:100CDF00754B1380147549FF754A0F754B188009B2
:100CEF007549FF754A0F754B1D850B4F850A4E854C
:100CFF00094D85084C7B007A00790D1206837B0025
:070D0F007A00790D020BC40C
:020E9A00AE07A1
:100E9C007FDFED14F8EF08800103D8FDFF7580FFAC
:100EAC00D2A78F80C2A7E4F580D2A6EE900F229332
:040EBC00F580C2A655
:010EC000220F
:03115900DFFE2294
:100F5700E4FDFCC3ED9FEC9E5015E4FBFA0BBB00D0
:0F0F6700010AEB64734A70F50DBD00010C80E4C4
:010F76002258
:020DDD00AE075F
:100DDF00E4FDEDC39E502BE4FCC2A37F32121159E8
:100DEF00D2A37F321211590CBCC8EEE4FCC2A37F10
:100DFF006E121159D2A37F6E1211590CBC64EE0DF5
:020E0F0080D091
:010E110022BE
:100F7700E4F523F5247FDC7E05120F57753C0075D9
:100F87003D00753E247B007A007923120C4E80E5E4
:06114400017A00017900B0
:10109600C2B5D2B6D2B400000000E580339209C2D0
:0310A600B4A209E8
:0110A9002224
:100FD30012109640FBC2B5C2B6C2B400008F8000A7
:0C0FE300000000D2B400000000C2B422E4
:1010230012109640FBD2B5C2B6C2B48F8000000046
:0A10330000D2B400000000C2B42295
:100EE800D2B77F30120FD37F057E00120F577F0CC9
:100EF800120FD37F057E00120F577F01120FD37F89
:060F0800057E00020F57F8
:0B0E4400057A537A03F579AD79AF7A97
:100E4F008F7A8D79EF70047E808013BF01047E90BE
:100E5F00800CBF02047E888005BF03027E98EE2DB2
:040E6F00FF020FD39C
:080D16008B6C8A6D896EAF053C
:100D1E00AD70120E4FE4FCAB6CAA6DA96E8C827591
:100D2E0083001204A6FF60241210230CAB6CAA6D74
:100D3E00A96E8C827583001204A6FF1210230C0577
:0C0D4E0079E579540770D0120E4480CB78
:010D5A002276
:100F3300AF05AD75120E4F12048DFF1210239000F2
:100F4300011204A6FF1210230579E57954077003F3
:040F5300120E442214
:1010D0007F01120FD37F057E00120F57E4FDFF0240
:0210E0000E4FB1
:0B112800120E4F7FA1121023021023B3
:0210AA00AC0791
:1010AC00E4FBAF04C374079BFD1211280BBB08F2C1
:0110BC002211
:100F9700E579700EE57AD394004009157A757907DB
:0F0FA70080021579120E4B7FA112102302102326
:1010BD00AE07BE01057F0C120FD3EE70057F08122F
:0310CD000FD3221C
:0411550025730A00F4
:100D9C00759850E4F587C299D2AFD2AC53890F4302
:100DAC008920EF8EF01205FA0DC804B00DCC096045
:100DBC000DD012C00DD4258000000DD67DE8800A20
:100DCC007DF480067DFA80027DFD8D8D8D8BD28E1B
:010DDC0022F4
:0C111C00C2AC8F993099FDC299D2AC2270
:100FB6008B768A778978D2998B498A4A894B7BFFC7
:0D0FC6007A1179551206893099FDC29922E1
:10062700E55D2449F8E6055D2278463007027849FA
:10063700E475F0011205C402048D2000EB7F2ED271
:10064700008018EF540F2490D43440D4FF30040BAB
:10065700EF24BFB41A0050032461FFE55E60021562
:100667005E0561E5617002056030070D7846E47547
:10067700F0011205C4EF0204D3020EC17403D207BE
:100687008003E4C207F55D8B468A478948E4F55E37
:10069700F560F561E55E60077F2012066280F575FB
:1006A7005FFFC201C200C202C203C205C206C2087E
:1006B700120630FF700D3007057F00120673AF6119
:1006C700AE6022B4255FC2D5C204120630FF24D023
:1006D700B40A00501A75F00A785E30D50508B6FFDF
:1006E7000106C6A426F620D5047002D20380D924B9
:1006F700CFB41A00EF5004C2E5D204020960D20158
:1007070080C6D20080C0D20280BCD2D580BAD205C2
:1007170080B47F201206622002077401B55E004094
:10072700F1120627FF12066202069BD208D2068044
:1007370095120627FB120627FA120627F94A4B706D
:100747000679577A0A7BFF20022EE55E602A7E0033
:100757008E827583001204A660060EEE655F70F048
:10076700C2D5EBC0E0EAC0E0E9C0E0EE1209C0D0B4
:10077700E0F9D0E0FAD0E0FB12048DFF60AAEBC0ED
:10078700E0EAC0E0E9C0E0120662D0E02401F9D057
:10079700E03400FAD0E0FBE55F0460DCD55FD98088
:1007A70087D20280A21209A360F7E55F70010412E5
:1007B7000003A95F600DE55F600914F55F120A4A3F
:1007C700EF60F3EA30E702F404C3995077EAF425BF
:1007D7005F0430E701E404F55F800D1209A360C1EF
:1007E700EA055F255F120003EA785CF630E701E46B
:1007F700255F04D55F04200501141209C0E4C0E099
:10080700120A4A785CE6601320E70714F612064AD4
:10081700802204F6D0E014C0E07F0012064AE55FAC
:100827006007120641155F800B300503120641D0A1
:10083700E002069BD0E00480C51209A360A0E55F33
:1008470004120003785CEAF6E55F20050260010404
:0508570024041209C099
:10085C0074FF04C0E0120A4A12064AE55F20050242
:10086C006003120641D0E0B55FE87F45120654786C
:10087C005CE67F2B30E7047F2DF404C0E0120662A7
:10088C00D0E075F00A84C0F012064BD0E012064B93
:10089C0002069B791080027908C206C2088008D231
:1008AC00D5790A8004790AC2D5E55F047002F55F38
:1008BC00E4FAFDFEFF120627FC7B0820011312064A
:1008CC0027FD7B1030000A120627FE120627FF7B3D
:1008DC0020EC3382D592D55013C3E43000069FFF31
:1008EC00E49EFEE42001039DFDE49CFCE4CBF8C2F5
:1008FC0001EC700CCFCECDCCE824F8F870F3801757
:10090C00C3EF33FFEE33FEED33FDEC33FCEB33FB87
:10091C00994002FB0FD8E9EB300105F8D0E0C44850
:10092C00B201C0E00AEC4D4E4F78207B0070C2EA59
:10093C00B55F0040BCC0E01209C2D0F0D0E020018D
:10094C0004C4C0E0C4B201C0F012064BD0F0D5F024
:10095C00EB02069B1205D4073853089F5807094C25
:10096C0007054208A34F08AB4408AB49071E4308D0
:10097C00B15507E24608404507AC470A7750070DCA
:10098C002D07112E07342B0715230732200A602A56
:10099C0006CD480000072CE55FB4FF03755F061217
:1009AC000627FC120627FD120627FE120627FF78E3
:1009BC0055020032790AA2D5200314300509B9106A
:1009CC00020404B9080104A2D52006025001042037
:1009DC0002689202B55E005034C0E07F20300319EB
:1009EC007F30A20272067205500F120A19C202C29F
:1009FC0006C205C2087F30800F300503E9C0E01243
:100A0C000662300503D0E0F9D0E0B55ECC300517B6
:100A1C007F30B9100C1206627F583004077F788043
:100A2C0003B908031206623002057F2D0206627FAD
:100A3C00202008F87F2B2006F322920280CF7F0023
:100A4C00B4070050052455F8E6FF22286E756C6C2F
:100A5C002900D2011206273001F8C201785E30D588
:100A6C000108F60206CD2D504349581206272403DF
:100A7C00B405004001E4900A7293120653743A12C2
:0A0A8C000653D203755E0402089FB2
:10000300F920E72824F950037907E4F42402FB18C4
:10001300DBFDE624FB5014E9600DE4F618E604F674
:0F002300B40A08E4F6D9F57401F60A22C2D52210
:10003200ED33EC3392D5FA602AB4FF33EDC2E77B9D
:10004200FF60067A007957E4227A00796020D504AD
:100052007A00795B224E614E002B494E46002D49B3
:100062004E4600E47A08F608DAFC7B00740722E8C0
:10007200C0E0ECC0E0EDC0E0EEC0E0EFC0E0EA7549
:10008200F010A4CAABF075F04DA42BFBE435F0FCE4
:10009200EA2410FAEB34C5FBEC34D9FCEDC2E7FFDD
:1000A20075F056A4F42411C5F0F434C58FF0A42AD7
:1000B200E5F03BE43CF620E714120403D0E0FFD065
:1000C200E0FED0E0FDD0E0FC1203368014F404120E
:1000D2000403D0E0FFD0E0FED0E0FDD0E0FC12024D
:1000E2002DD0E0F8E6FAEDD2E7CD33EC332482FBF3
:1000F200E4C3CF33CFCE33CECD33CD33DBF37B0767
:1001020075F00A846004F6081B0AE5F0F6088FF021
:10011200740AA4FFACF08EF0740AA42CFEACF0506A
:10012200010C8DF0740AA42CFDE435F0F608DBDE38
:030132007407222D
:10013500020478E86480F8E933E83360110460F07C
:10014500ED33EC337009E8FCE9FDEAFEEBFF220430
:1001550060DED3EB9FEA9EE99DE8C2E78CF0C2F72B
:1001650095F0400CE8CCF8E9CDF9EACEFAEBCFFBF7
:1001750012044385D0F05804700320D5B3E8047009
:10018500075002B2D502048292D5EC0460F7E4CCA4
:10019500C0E0C398F8603B94186008400DD0E0FBC0
:1001A50002045AE4FBFAC9FC8028E830E406E4C9F5
:1001B500FBE4CAFCE830E305E4C9CACBFCE8540714
:1001C5006010F8C3E913F9EA13FAEB13FBEC13FC1F
:1001D500D8F130F52FC3E49CFCEF9BFFEE9AFEEDC2
:1001E50099FDD0E0FBEF4E4D4C701222DB0302046B
:1001F5007FEC2CFCEF33FFEE33FEED33FDED30E706
:10020500EB02045AEF2BFFEE3AFEED39FDD0E0FB91
:1002150050130BBB0003020482ED13FDEE13FEEF3A
:0802250013FFEC13FC02045A64
:10022D00EC4D6011E8497017ED33EC3304600DE4CB
:10023D00FCFFFEFD22E933E8330470F80204781266
:10024D00044358046009E4CC248150062850090267
:10025D00048228400302047FC0E0EB4A7044B98059
:10026D0006D0E0FB02046EEF4E701CBD8008EBFF64
:10027D00EAFEE9FD80EBE98DF0A4FEE5F002031640
:10028D00E9CDF9EAFEEBFFEF89F0A4FCE5F0CE89AC
:10029D00F0A42EFFE435F0CD89F0A42DFEE435F069
:1002AD008067EF4E7005BD80D780C3EF8BF0A4AC97
:1002BD00F0EE8BF0A42CFCE435F0F8EF8AF0A42CD2
:1002CD00E5F038FCE433CB8DF0A42CFCE5F03BF8E5
:1002DD00EE8AF0A42CFCE5F038F8E433CF89F0A4D5
:1002ED002CFCE5F038CF3400CE89F0A42FFFE5F0DB
:1002FD003EFEE433C98DF0A42EFEE5F039CD8AF033
:10030D00A42FFFE5F03EFEE43DFD33D0E0FB5007AA
:10031D000BBB000F020482EC2CFCEF33FFEE33FE1F
:06032D00ED33FD02045A4D
:10033300020482EC5D046005E8590470030204784A
:10034300120443580460F6EC4860F2EC7004FDFEBE
:10035300FF22C860DB2481C85009C398600250069D
:1003630002047F9850CAF582E9294B4A7005AB8293
:1003730002046E75F0007C1A7880C3EF9BEE9AED51
:1003830099400DC3EF9BFFEE9AFEED99FDE842F015
:10039300DC23ACF0D0E0FFD0E0FED0E0FDAB822068
:1003A300E7101BEB60BAEC2CFCEF33FFEE33FEEDF2
:1003B30033FD02045AE803F830E705C0F075F00096
:1003C300EF2FFFEE33FEED33FD40B830E7C280AAD6
:1003D3003F8000004120000042C80000447A000032
:1003E300461C400047C35000497424004B189680B4
:1003F3004CBEBC205A0E1BCA6753C21C749DC5AEAB
:10040300FB60065407601C2323120431EB5438604D
:100413000912041D12042C12022DECF8EDF9EEFA68
:10042300EFCB22EB12042C80F1543803241C9003ED
:10043300D3FE93FC0EEE93FD0EEE930ECE93FF22AE
:10044300E9D2E7C933E833F892D5EDD2E7CD33ECFF
:0704530033FC5002B2D52278
:10045A00EC30E7100FBF000C0EBE00080DBD000403
:10046A000BEB6014A2D5EB13FCED92E7FD2274FFAF
:10047A00FCFDFEFF22E480F8A2D574FF13FC7D8008
:03048A00E480EF1C
:100B4400020F77E493A3F8E493A34003F68001F241
:100B540008DFF48029E493A3F85407240CC8C333B2
:100B6400C4540F4420C8834004F456800146F6DF81
:100B7400E4800B0102040810204080901144E47EBC
:100B8400019360BCA3FF543F30E509541FFEE49376
:100B9400A360010ECF54C025E060A840B8E493A33D
:100BA400FAE493A3F8E493A3C8C582C8CAC583CA68
:100BB400F0A3C8C582C8CAC583CADFE9DEE780BE20
:01114A0000A4
:10048D00BB010689828A83E0225002E722BBFE026D
:09049D00E32289828A83E49322A0
:1004A600BB010CE58229F582E5833AF583E022500B
:1004B60006E92582F8E622BBFE06E92582F8E22255
:0D04C600E58229F582E5833AF583E493226F
:1004D300BB010689828A83F0225002F722BBFE0108
:0204E300F32202
:1004E50075F008758200EF2FFFEE33FECD33CDCCCE
:1004F50033CCC58233C5829BED9AEC99E582984051
:100505000CF582EE9BFEED9AFDEC99FC0FD5F0D62D
:10051500E4CEFBE4CDFAE4CCF9A88222B800C1B957
:100525000059BA002DEC8BF084CFCECDFCE5F0CB95
:10053500F97818EF2FFFEE33FEED33FDEC33FCEBCE
:1005450033FB10D703994004EB99FB0FD8E5E4F989
:10055500FA227818EF2FFFEE33FEED33FDEC33FC76
:10056500C933C910D7059BE99A4007EC9BFCE99A6A
:10057500F90FD8E0E4C9FAE4CCFB2275F010EF2FAF
:10058500FFEE33FEED33FDCC33CCC833C810D707AF
:100595009BEC9AE899400AED9BFDEC9AFCE899F8EA
:0E05A5000FD5F0DAE4CDFBE4CCFAE4C8F9227D
:1005B300EB9FF5F0EA9E42F0E99D42F0E89C45F09E
:0105C3002215
:1005C400FAE6FB0808E6F925F0F618E6CA3AF62238
:1005D400D083D082F8E4937012740193700DA3A3B6
:1005E40093F8740193F5828883E4737402936860CA
:0605F400EFA3A3A380DFCA
:1005FA00D083D082F8E4937012740193700DA3A390
:10060A0093F8740193F5828883E473740293B5F0C6
:0D061A00067403936860E9A3A3A3A380D82E
:100EC100EFB40A07740D120ECC740A309811A89968
:100ED100B8130CC2983098FDA899C298B811F63091
:070EE10099FDC299F5992269
:10108100E4FFFE12048D600C0FEF70010E09E97090
:05109100F20A80EF22CD
:00000001FF
