:03000000020425D2
:0C042500787FE4F6D8FD75812602046C97
:05064900626F647900FE
:0B062700012200022300000225000059
:0A063F00EF1F70011E144E70F72229
:1005DA00E4FDFCC3ED9FEC9E5015E4FBFA0BBB0057
:0F05EA00010AEB64734A70F50DBD00010C80E44B
:0105F90022DF
:02050100AD0744
:10050300E4FCECC39D5043E4FBFAC2957F327E00CA
:1005130012063FD2957F327E0012063F0BBB0001CD
:100523000AEB64C84A70E3E4FBFAC2957F6E7E006F
:1005330012063FD2957F6E7E0012063F0BBB000171
:0A0543000AEB64644A70E30C80B810
:01054D00228B
:100617005389F0438902E4F58CF58AD2AFD2A92237
:06000300EF24FF928C22A5
:1005B6007FC07E1212054E3092FD7F0A7E00120524
:1005C600DA3092F37BFF7A0679491205FA7F051233
:0405D600050180E3B8
:03000B000204B13B
:1004B100C0E0C0D0E522701F0524E52470020523A9
:1004C100B4E810E523B4030B7523007524007522ED
:1004D100018028B29580240526E52670020525B401
:1004E100E812E525B4030D752500752600C28C754B
:1004F10022008007E52620E002B295D0D0D0E0327C
:04064E0025730A0006
:10054E00759850758780C299D2AFD2AC53890F433C
:10055E008920EF8EF012036A057A04B0057E0960D9
:10056E00058212C005862580000005887DE8800A78
:10057E007DF480067DF380027DFD8D8D8D8BD28E78
:01058E00224A
:0C063300C2AC8F993099FDC299D2AC2264
:1005FA008B088A09890AD2998B0E8A0F89107BFF88
:0D060A007A06794E1200703099FDC29922D7
:100431000205B6E493A3F8E493A34003F68001F226
:1004410008DFF48029E493A3F85407240CC8C333CC
:10045100C4540F4420C8834004F456800146F6DF9B
:10046100E4800B0102040810204080900627E47EFE
:10047100019360BCA3FF543F30E509541FFEE49390
:10048100A360010ECF54C025E060A840B8E493A357
:10049100FAE493A3F8E493A3C8C582C8CAC583CA82
:1004A100F0A3C8C582C8CAC583CADFE9DEE780BE3A
:0106320000C7
:10036A00D083D082F8E4937012740193700DA3A322
:10037A0093F8740193F5828883E473740293B5F059
:0D038A00067403936860E9A3A3A3A380D8C1
:10000E00E51A240EF8E6051A22780B300702780E50
:10001E00E475F0011203EF0203972000EB7F2ED25E
:10002E00008018EF540F2490D43440D4FF30040BCA
:10003E00EF24BFB41A0050032461FFE51B600215C4
:10004E001B051EE51E7002051D30070D780BE475AD
:10005E00F0011203EFEF0203DD02058F7403D207E6
:10006E008003E4C207F51A8B0B8A0C890DE4F51B8D
:10007E00F51DF51EE51B60077F2012004980F57502
:10008E001CFFC201C200C202C203C205C206C208E0
:10009E00120017FF700D3007057F0012005AAF1EB9
:1000AE00AE1D22B4255FC2D5C204120017FF24D0A4
:1000BE00B40A00501A75F00A781B30D50508B6FF41
:1000CE000106C6A426F620D5047002D20380D924D8
:1000DE00CFB41A00EF5004C2E5D20402025AD20184
:1000EE0080C6D20080C0D20280BCD2D580BAD205E2
:1000FE0080B47F201200492002077401B51B004016
:10010E00F112000EFF120049020082D208D20680C0
:10011E009512000EFB12000EFA12000EF94A4B70E9
:10012E0006792B7A037BFF20022EE51B602A7E00C8
:10013E008E827583001203B060060EEE651C70F0A1
:10014E00C2D5EBC0E0EAC0E0E9C0E0EE1202A1D0F9
:10015E00E0F9D0E0FAD0E0FB120397FF60AAEBC003
:10016E00E0EAC0E0E9C0E0120049D0E02401F9D095
:10017E00E03400FAD0E0FBE51C0460DCD51CD9802D
:10018E00877BFF7A02799DD202809C79108002795A
:10019E0008C206C2088008D2D5790A8004790AC23C
:1001AE00D5E51C047002F51CE4FAFDFEFF12000EEC
:1001BE00FC7B0820011312000EFD7B1030000A128A
:1001CE00000EFE12000EFF7B20EC3382D592D5502E
:1001DE0013C3E43000069FFFE49EFEE42001039D5E
:1001EE00FDE49CFCE4CBF8C201EC700CCFCECDCC80
:1001FE00E824F8F870F38017C3EF33FFEE33FEED0B
:10020E0033FDEC33FCEB33FB994002FB0FD8E9EBEB
:10021E00300105F8D0E0C448B201C0E00AEC4D4E02
:10022E004F78207B0070C2EAB51C0040BCC0E012C3
:10023E0002A3D0F0D0E0200104C4C0E0C4B201C0DB
:10024E00F0120032D0F0D5F0EB0200821203FF0163
:10025E001F5301995800F04C00EC42019D4F01A52F
:0F026E004401A54901054301AB55018F46018F9E
:10027D0045018F47034B5000F42D00F82E011B2B29
:10028D0000FC2301192003342A00B4480000011397
:10029D003F3F3F00790AA2D5200314300509B9105C
:1002AD00020404B9080104A2D5200602500104205D
:1002BD0002689202B51B005034C0E07F2030031954
:1002CD007F30A20272067205500F1202FAC202C2EC
:1002DD0006C205C2087F30800F300503E9C0E01269
:1002ED000049300503D0E0F9D0E0B51BCC3005173F
:1002FD007F30B9100C1200497F583004077F788089
:10030D0003B908031200493002057F2D0200497F11
:10031D00202008F87F2B2006F322920280CF286E32
:10032D00756C6C2900D20112000E3001F8C20178F3
:10033D001B30D50108F60200B42D50434958120068
:10034D000E2403B405004001E49003469312003AD5
:0D035D00743A12003AD203751B0402019994
:10039700BB010689828A83E0225002E722BBFE0264
:0903A700E32289828A83E4932297
:1003B000BB010CE58229F582E5833AF583E0225002
:1003C00006E92582F8E622BBFE06E92582F8E2224C
:0D03D000E58229F582E5833AF583E4932266
:1003DD00BB010689828A83F0225002F722BBFE01FF
:0203ED00F322F9
:1003EF00FAE6FB0808E6F925F0F618E6CA3AF6220F
:1003FF00D083D082F8E4937012740193700DA3A38D
:10040F0093F8740193F5828883E4737402936860A0
:06041F00EFA3A3A380DFA0
:10058F00EFB40A07740D12059A740A309811A899DE
:10059F00B8130CC2983098FDA899C298B811F630CC
:0705AF0099FDC299F59922A4
:00000001FF
