:0300000002000EED
:0C000E00787FE4F6D8FD75810C020055E7
:0B01BE0001080002090000020B000015
:0A01CA00EF1F70011E144E70F722A3
:10018E00E4FDFCC3ED9FEC9E5015E4FBFA0BBB00A7
:0F019E00010AEB64734A70F50DBD00010C80E49B
:0101AD00222F
:02014100AD0708
:10014300E4FCECC39D5043E4FBFAC2A37FFA7E00B8
:100153001201CAD2A37FFA7E001201CA0BBB0001AF
:100163000AEB64644A70E3E4FBFAC2A37FF47E0102
:100173001201CAD2A37FF47E011201CA0BBB000194
:0A0183000AEB64324A70E30C80B806
:01018D00224F
:1001AE005389F0438902E4F58CF58AD2AFD2A922A5
:06000300EF24FF928C22A5
:10009A00E4F9309045D2A009E9D3940740027907E0
:1000AA00E914B4070050379000BF75F003A4C58364
:1000BA0025F0C583730200E00200DE0200DC0200C4
:1000CA00DA0200D80200D60200D4D2A7D2A6D2A55C
:1000DA00D2A4D2A3D2A2D2A18004E4F9F5A07F0AC5
:0700EA007E0012018E80ABC5
:03000B000200F1FF
:1000F100C0E0C0D0E508701F050AE50A70020509D5
:10010100B4E810E509B4030B750900750A00750818
:10011100018028B2A38024050CE50C7002050BB404
:10012100E812E50BB4030D750B00750C00C28C755C
:1001310008008007E50C20E002B2A3D0D0D0E03265
:10001A0002009AE493A3F8E493A34003F68001F262
:10002A0008DFF48029E493A3F85407240CC8C333E7
:10003A00C4540F4420C8834004F456800146F6DFB6
:10004A00E4800B01020408102040809001BEE47E87
:10005A00019360BCA3FF543F30E509541FFEE493AB
:10006A00A360010ECF54C025E060A840B8E493A372
:10007A00FAE493A3F8E493A3C8C582C8CAC583CA9D
:10008A00F0A3C8C582C8CAC583CADFE9DEE780BE55
:0101C9000035
:00000001FF
