:03000000020A757C
:0C0A7500787FE4F6D8FD75811302089824
:100A00004861707079204269727468646179005439
:060A10006F20596F750014
:100898001208D2120A1650FB7BFF7A0A7900750CEF
:1008A80001E4FD1209047BFF7A0A790F750C057DB6
:1008B80001120904E4F5907FF47E011209AA7590EB
:0A08C800FF7FF47E011209AA80EA06
:10080000EF14602B04704E750F7FE4F510850F9088
:10081000AF0F7801EF08800103D8FDF50F7F2C7E24
:10082000011209AA0510E510C3940840E08026755E
:100830000FFEE4F510850F90AF0F7801EF088001EF
:1008400023D8FDF50F7F2C7E011209AA0510E510B3
:08085000C3940840E07590FF1D
:01085800227D
:1009CA007580FFC2B57F057E001209AAD2B4D2B3E0
:0E09DA007F057E001209AAE5805480FFC2B39B
:0109E80022EC
:100962008F0E1209CAEF640160F8C2B57F017E00E2
:100972001209AAC2B4D2B3850E807F017E00120989
:04098200AAC2B32230
:100986008F0E1209CAEF640160F8D2B57F017E00AE
:100996001209AAC2B4D2B3850E807F017E00120965
:0409A600AAC2B3220C
:100A2A00EF60047F4080027F00EF24802DFF0209DF
:010A3A006259
:1008D2007F381209627F381209627F381209627FFB
:1008E200011209627F061209627F017E001209AAC3
:1008F2007F0C120962E4FDFF120A2A7F057E0002C4
:0209020009AA40
:080904008B088A09890AAF057E
:10090C00E4F50DAD0C120A2AAB08AA09A90A850D4B
:10091C0082758300120859FF600E120986050D7F3F
:08092C00057E001209AA80E01B
:0109340022A0
:0A0A8C001209867F057E000209AA08
:1009E9008F13AE03AF05AD06120A2AAF131209869B
:0709F9007F057E000209AA40
:050A96007F010209626E
:0F0A4C007F101209627F201209867F1002096253
:0D0A5B00EF60047F1480027F1012096222F8
:0D0A6800EF60047F1C80027F1812096222DB
:100A3B0020A20C7F0A7E001209AA20A202D322C395
:010A4B002288
:100A160020A20F7F0A7E001209AA20A20530A2FD9D
:040A2600D322C322F2
:02093500A90710
:10093700E4FBFAE9FF7E007C037DE8120886D3EB2F
:100947009FEA9E5015E4FFFE0FBF00010EEF646F94
:0A0957004E70F50BBB00010A80D9B9
:010961002273
:1009AA00E4FDFCC3ED9FEC9E5015E4FBFA0BBB0083
:0F09BA00010AEB64714A70F50DBD00010C80E479
:0109C900220B
:0B0A8100EF1FAC0670011E4C70F62247
:10085900BB010CE58229F582E5833AF583E0225054
:1008690006E92582F8E622BBFE06E92582F8E2229E
:0D087900E58229F582E5833AF583E49322B8
:10088600EF8DF0A4A8F0CF8CF0A428CE8DF0A42E86
:02089600FE2240
:00000001FF
