:0300000002125297
:0C125200787FE4F6D8FD75814702129900
:0515F200252E32660009
:0F15D700040B0000000002090000010800C18A97
:101588005389F0438901758A18758CFCC28DD28CF9
:05159800D2A9D2AF2230
:1013D500121588752FFF7530157531F2850E358517
:1013E5000D34850C33850B327B007A007922120E81
:1013F5003F7B007A0079221212DEE4FFFE7DF07C4D
:1014050041AB0EAA0DA90CA80B120906601C401AC7
:10141500E4FFFE7D347C42AB0EAA0DA90CA80B128D
:0E14250009065006C2A0D20A80A9C20A80A5FC
:03000B0002135A83
:10135A00C0E0C0F0C083C082C0D075D000C000C059
:10136A0001C002C003C004C005C006C007758A18C0
:10137A00758CFC0508050AE50A70020509FFAE0925
:10138A00BE0317BFE814750900750A001215B212D8
:10139A00147B8F0E8E0D8D0C8C0B200A13B2A5E5D3
:1013AA0008B46402D2A0E508B4C805C2A075080052
:1013BA00D007D006D005D004D003D002D001D00087
:0B13CA00D0D0D082D083D0F0D0E03231
:0214B400A90786
:1014B600E4FBFAE9FF7E007C037DE8120D8DD3EB99
:1014C6009FEA9E5015E4FFFE0FBF00010EEF646F0A
:0A14D6004E70F50BBB00010A80D92F
:0114E00022E9
:10152C00E4FDFCC3ED9FEC9E5015E4FBFA0BBB00F5
:0F153C00010AEB64714A70F50DBD00010C80E4EB
:01154B00227D
:0B15E700EF1FAC0670011E4C70F622D6
:10154C00C2B77F677E00EF1F70011EEF4E70F7D29F
:0E155C00B77E007F04EF1F70011EEF4E70F788
:01156A00225E
:10150800C2B70FBF0000D2B70FBF00000FBF000067
:10151800A2B792097E007F08EF1F70011EEF4E7080
:03152800F7A2091E
:01152B00229D
:10156B00E4FD7C01121508E433FFC433333354809C
:0C157B00FEEDC3134EFD0CBC09EAAF05E9
:011587002241
:101433007E01EF139209EFC313FF30091BC2B70BF1
:10144300BB00000BBB0000D2B77A007B08EB1B701C
:10145300011AEB4A70F7801BC2B77A007B08EB1BBB
:1014630070011AEB4A70F7D2B70BBB00010A0BBB32
:0714730000010A0EBE09BBD7
:01147A00224F
:1015B20012154C7F017E0012152C7FCC1214337F42
:0415C2004402143398
:10147B0012154C7F017E0012152C7FCC1214337F7A
:10148B00BE12143312156BAB0712156BEF30E3035F
:10149B004307F0EFFEEBFFFDAC06EC120978E4FB23
:0814AB00FA7980783D12080077
:0114B3002216
:1015C6003F065B4F666D7D077F6F777C395E79716D
:0115D6000014
:0612DE008B2C8A2D892EE5
:1012E400E4F52F12159D8F30E530606953A0E3E5D6
:1012F4002F42A0E4F580FE74FF2530F582EE34FF22
:10130400F583AB2CAA2DA92E120D4EFF24E06028E4
:1013140024F3601F1470261530E5307C0024FFF59B
:1013240082EC34FFF583120D4E901596934480F5AC
:10133400808011758040800CE4F5808007EF901563
:101344009693F58015307404252FF52F7F037E00C6
:0513540012152C80932E
:011359002271
:10080000EC4D6011E8497017ED33EC3304600DE4F2
:10081000FCFFFEFD22E933E8330470F80209E6121A
:1008200009B158046009E4CC24815006285009021B
:1008300009F02840030209EDC0E0EB4A7044B9809A
:1008400006D0E0FB0209DCEF4E701CBD8008EBFF18
:10085000EAFEE9FD80EBE98DF0A4FEE5F00208E98F
:10086000E9CDF9EAFEEBFFEF89F0A4FCE5F0CE89D3
:10087000F0A42EFFE435F0CD89F0A42DFEE435F090
:100880008067EF4E7005BD80D780C3EF8BF0A4ACBE
:10089000F0EE8BF0A42CFCE435F0F8EF8AF0A42CF9
:1008A000E5F038FCE433CB8DF0A42CFCE5F03BF80C
:1008B000EE8AF0A42CFCE5F038F8E433CF89F0A4FC
:1008C0002CFCE5F038CF3400CE89F0A42FFFE5F002
:1008D0003EFEE433C98DF0A42EFEE5F039CD8AF05A
:1008E000A42FFFE5F03EFEE43DFD33D0E0FB5007D2
:1008F0000BBB000F0209F0EC2CFCEF33FFEE33FED4
:06090000ED33FD0209C801
:1009060074F8CC6480CCC86480C8F582046043C3A4
:10091600EB9FF5F0EA9E42F0E99D42F0E89C45F037
:1009260060305018E5825FFFE582F42B5582FB505C
:10093600210ABA001D09B90019088016E5825BFB79
:10094600E582F42F5582FF50090EBE00050DBD004D
:10095600010CC3EB9FF5F0EA9E42F0E99D42F0E8F8
:0D0966009C45F06007CC4820E701B3EC226F
:1009730075F020800E75F010800575F0087D007EFF
:10098300007F003392D530D503120D9FEC33401016
:10099300EF33FFEE33FEED33FDEC33FCD5F0ED2208
:0E09A300E5F0247EA2D513CC92E7CDCEFF2244
:100DE300E543242FF8E6054322782C300702782FB9
:100DF300E475F001120DAD020D352000EB7F2ED20C
:100E0300008018EF540F2490D43440D4FF30040BE7
:100E1300EF24BFB41A0050032461FFE544600215B8
:100E2300440547E5477002054630070D782CE47505
:100E3300F001120DADEF020D7B0214E17403D20732
:100E43008003E4C207F5438B2C8A2D892EE4F544F5
:100E5300F546F547E54460077F20120E1E80F575C1
:100E630045FFC201C200C202C203C205C206C208D4
:100E7300120DECFF700D3007057F00120E2FAF47E8
:100E8300AE4622B4255FC2D5C204120DECFF24D0B6
:100E9300B40A00501A75F00A784430D50508B6FF35
:100EA3000106C6A426F620D5047002D20380D924F5
:100EB300CFB41A00EF5004C2E5D20402111CD201D0
:100EC30080C6D20080C0D20280BCD2D580BAD205FF
:100ED30080B47F20120E1E2002077401B544004027
:100EE300F1120DE3FF120E1E020E57D208D2068036
:100EF30095120DE3FB120DE3FA120DE3F94A4B7061
:100F03000679137A127BFF20022EE544602A7E00C5
:100F13008E82758300120D4E60060EEE654570F0ED
:100F2300C2D5EBC0E0EAC0E0E9C0E0EE12117CD02C
:100F3300E0F9D0E0FAD0E0FB120D35FF60AAEBC078
:100F4300E0EAC0E0E9C0E0120E1ED0E02401F9D0CF
:100F5300E03400FAD0E0FBE5450460DCD545D980F8
:100F630087D20280A212115F60F7E5457001041277
:100F730009FBA945600DE545600914F54512120604
:100F8300EF60F3EA30E702F404C3995077EAF425FB
:100F9300450430E701E404F545800D12115F60C19B
:100FA300EA054525451209FBEA7842F630E701E4F4
:100FB300254504D545042005011412117CE4C0E045
:100FC3001212067842E6601320E70714F6120E06A3
:100FD300802204F6D0E014C0E07F00120E06E5453F
:100FE3006007120DFD1545800B300503120DFDD072
:100FF300E0020E57D0E00480C512115F60A0E54502
:10100300041209FB7842EAF6E54520050260010473
:05101300240412117C11
:1010180074FF04C0E0121206120E06E54520050210
:101028006003120DFDD0E0B545E87F45120E10783B
:1010380042E67F2B30E7047F2DF404C0E0120E1E39
:10104800D0E075F00A84C0F0120E07D0E0120E0747
:10105800020E57791080027908C206C2088008D2A9
:10106800D5790A8004790AC2D5E545047002F545A8
:10107800E4FAFDFEFF120DE3FC7B08200113120DBC
:10108800E3FD7B1030000A120DE3FE120DE3FF7B37
:1010980020EC3382D592D55013C3E43000069FFF6D
:1010A800E49EFEE42001039DFDE49CFCE4CBF8C231
:1010B80001EC700CCFCECDCCE824F8F870F3801793
:1010C800C3EF33FFEE33FEED33FDEC33FCEB33FBC4
:1010D800994002FB0FD8E9EB300105F8D0E0C4488D
:1010E800B201C0E00AEC4D4E4F78207B0070C2EA96
:1010F800B5450040BCC0E012117ED0F0D0E0200120
:1011080004C4C0E0C4B201C0F0120E07D0F0D5F09C
:10111800EB020E57120DBD0EF453105B580EC54C62
:101128000EC142105F4F1067441067490EDA431032
:101138006D550F9E460FFC450F68471233500EC978
:101148002D0ECD2E0EF02B0ED1230EEE20121C2AC2
:101158000E894800000EE8E545B4FF037545061200
:101168000DE3FC120DE3FD120DE3FE120DE3FF7813
:101178003B020A2A790AA2D5200314300509B910BE
:10118800020404B9080104A2D52006025001042073
:1011980002689202B544005034C0E07F2030031941
:1011A8007F30A20272067205500F1211D5C202C218
:1011B80006C205C2087F30800F300503E9C0E0127F
:1011C8000E1E300503D0E0F9D0E0B544CC30051749
:1011D8007F30B9100C120E1E7F583004077F7880BC
:1011E80003B90803120E1E3002057F2D020E1E7F62
:1011F800202008F87F2B2006F322920280CF7F0060
:10120800B407005005243BF8E6FF22286E756C6C85
:101218002900D201120DE33001F8C201784430D51B
:101228000108F6020E892D50434958120DE3240394
:10123800B405004001E490122E93120E0F743A1276
:0A1248000E0FD20375440402105B80
:1009B100E9D2E7C933E833F892D5EDD2E7CD33EC8C
:0709C10033FC5002B2D52205
:1009C800EC30E7100FBF000C0EBE00080DBD000490
:1009D8000BEB6014A2D5EB13FCED92E7FD2274FF3C
:1009E800FCFDFEFF22E480F8A2D574FF13FC7D8095
:0309F800E480EFA9
:1009FB00F920E72824F950037907E4F42402FB18C3
:100A0B00DBFDE624FB5014E9600DE4F618E604F672
:0F0A1B00B40A08E4F6D9F57401F60A22C2D5220E
:100A2A00ED33EC3392D5FA602AB4FF33EDC2E77B9B
:100A3A00FF60067A0A794FE4227A0A795820D504A7
:100A4A007A0A7953224E614E002B494E46002D49AF
:100A5A004E4600E47A08F608DAFC7B00740722E8BE
:100A6A00C0E0ECC0E0EDC0E0EEC0E0EFC0E0EA7547
:100A7A00F010A4CAABF075F04DA42BFBE435F0FCE2
:100A8A00EA2410FAEB34C5FBEC34D9FCEDC2E7FFDB
:100A9A0075F056A4F42411C5F0F434C58FF0A42AD5
:100AAA00E5F03BE43CF620E714120CF5D0E0FFD069
:100ABA00E0FED0E0FDD0E0FC120C288014F4041211
:100ACA000CF5D0E0FFD0E0FED0E0FDD0E0FC12084B
:100ADA0000D0E0F8E6FAEDD2E7CD33EC332482FB1E
:100AEA00E4C3CF33CFCE33CECD33CD33DBF37B0765
:100AFA0075F00A846004F6081B0AE5F0F6088FF020
:100B0A00740AA4FFACF08EF0740AA42CFEACF05068
:100B1A00010C8DF0740AA42CFDE435F0F608DBDE36
:030B2A007407222B
:100B2D000209E6E86480F8E933E83360110460F007
:100B3D00ED33EC337009E8FCE9FDEAFEEBFF22042E
:100B4D0060DED3EB9FEA9EE99DE8C2E78CF0C2F729
:100B5D0095F0400CE8CCF8E9CDF9EACEFAEBCFFBF5
:100B6D001209B185D0F05804700320D5B3E8047094
:100B7D00075002B2D50209F092D5EC0460F7E4CC2F
:100B8D00C0E0C398F8603B94186008400DD0E0FBBE
:100B9D000209C8E4FBFAC9FC8028E830E406E4C980
:100BAD00FBE4CAFCE830E305E4C9CACBFCE8540712
:100BBD006010F8C3E913F9EA13FAEB13FBEC13FC1D
:100BCD00D8F130F52FC3E49CFCEF9BFFEE9AFEEDC0
:100BDD0099FDD0E0FBEF4E4D4C701222DB03020964
:100BED00EDEC2CFCEF33FFEE33FEED33FDED30E796
:100BFD00EB0209C8EF2BFFEE3AFEED39FDD0E0FB1D
:100C0D0050130BBB00030209F0ED13FDEE13FEEFC5
:080C1D0013FFEC13FC0209C8EF
:100C25000209F0EC5D046005E8590470030209E669
:100C35001209B1580460F6EC4860F2EC7004FDFE50
:100C4500FF22C860DB2481C85009C39860025006A2
:100C55000209ED9850CAF582E9294B4A7005AB8225
:100C65000209DC75F0007C1A7880C3EF9BEE9AEDE3
:100C750099400DC3EF9BFFEE9AFEED99FDE842F01A
:100C8500DC23ACF0D0E0FFD0E0FED0E0FDAB82206D
:100C9500E7101BEB60BAEC2CFCEF33FFEE33FEEDF7
:100CA50033FD0209C8E803F830E705C0F075F00028
:100CB500EF2FFFEE33FEED33FD40B830E7C280AADB
:100CC5003F8000004120000042C80000447A000037
:100CD500461C400047C35000497424004B189680B9
:100CE5004CBEBC205A0E1BCA6753C21C749DC5AEB0
:100CF500FB60065407601C2323120D23EB54386058
:100D050009120D0F120D1E120800ECF8EDF9EEFA9E
:100D1500EFCB22EB120D1E80F1543803241C900CEE
:100D2500C5FE93FC0EEE93FD0EEE930ECE93FF22C1
:10125E000213D5E493A3F8E493A34003F68001F2BE
:10126E0008DFF48029E493A3F85407240CC8C33391
:10127E00C4540F4420C8834004F456800146F6DF60
:10128E00E4800B01020408102040809015D7E47E04
:10129E00019360BCA3FF543F30E509541FFEE49355
:1012AE00A360010ECF54C025E060A840B8E493A31C
:1012BE00FAE493A3F8E493A3C8C582C8CAC583CA47
:1012CE00F0A3C8C582C8CAC583CADFE9DEE780BEFF
:0115E6000004
:100D3500BB010689828A83E0225002E722BBFE02BC
:090D4500E32289828A83E49322EF
:100D4E00BB010CE58229F582E5833AF583E022505A
:100D5E0006E92582F8E622BBFE06E92582F8E222A4
:0D0D6E00E58229F582E5833AF583E49322BE
:100D7B00BB010689828A83F0225002F722BBFE0157
:020D8B00F32251
:100D8D00EF8DF0A4A8F0CF8CF0A428CE8DF0A42E7A
:020D9D00FE2234
:0E0D9F00C3E49FFFE49EFEE49DFDE49CFC2265
:100DAD00FAE6FB0808E6F925F0F618E6CA3AF62247
:100DBD00D083D082F8E4937012740193700DA3A3C5
:100DCD0093F8740193F5828883E4737402936860D9
:060DDD00EFA3A3A380DFD9
:1014E100EFB40A07740D1214EC740A309811A8991C
:1014F100B8130CC2983098FDA899C298B811F6306B
:0715010099FDC299F5992242
:10159D00E4FFFE120D35600C0FEF70010E09E970BE
:0515AD00F20A80EF22AC
:00000001FF
