:03000000020103F7
:0C010300787FE4F6D8FD75810C0200B393
:1000B300E4F5081200CC50FBAF081200030508E575
:0900C30008640270EEF50880EA01
:02006600A907E8
:10006800E4FBFAE9FF7E007C037DE81200E0D3EBB5
:100078009FEA9E5015E4FFFE0FBF00010EEF646F6C
:0A0088004E70F50BBB00010A80D991
:01009200224B
:10009300E4FDFCC3ED9FEC9E5015E4FBFA0BBB00A3
:0F00A300010AEB64714A70F50DBD00010C80E499
:0100B200222B
:0B010F00EF1FAC0670011E4C70F622C2
:1000F20020A20C7F0A7E0012009320A202D322C308
:0101020022DA
:1000CC0020A20F7F0A7E0012009320A20530A2FD11
:0400DC00D322C32246
:10000300EF14602F04705875097FE4F50AC3E50AFD
:100013009408748094805047850990AF097801EF64
:1000230008800103D8FDF5097F2C7E01120093059A
:100033000A80DA7509FEE4F50AC3E50A94087480B8
:100043009480501B850990AF097801EF0880012344
:10005300D8FDF5097F2C7E01120093050A80DA751D
:0200630090FF0C
:010065002278
:1000E000EF8DF0A4A8F0CF8CF0A428CE8DF0A42E34
:0200F000FE22EE
:00000001FF
