:03000000020B846C
:0C0B8400787FE4F6D8FD75817B020BCB76
:0B11AE0054656D703A20252E3166005C
:100FC400E4FDFCC3ED9FEC9E5015E4FBFA0BBB0063
:0F0FD400010AEB64734A70F50DBD00010C80E457
:010FE30022EB
:100D8600120E82121108120E498F278E268D258C7F
:100D960024754FFF7550117551AE8F558E548D5376
:100DA6008C527B007A0079281206CF7B007A007974
:100DB60028E4F550FD120DC77F207E03120FC48074
:010DC600C26A
:100FE400C2A27F677E00EF1F70011EEF4E70F7D222
:0E0FF400A27E007F04EF1F70011EEF4E70F70B
:0110020022CB
:100F7C00C2A20FBF0000D2A20FBF00000FBF000023
:100F8C00A2A292007E007F08EF1F70011EEF4E7030
:030F9C00F7A200B9
:010F9F00222F
:10102200E4FD7C01120F7CE433FFC433333354807C
:0C103200FEEDC3134EFD0CBC09EAAF0537
:01103E00228F
:100CF9007E01EF139200EFC313FF30001BC2A20B5A
:100D0900BB00000BBB0000D2A27A007B08EB1B7072
:100D1900011AEB4A70F7801BC2A27A007B08EB1B11
:100D290070011AEB4A70F7D2A20BBB00010A0BBB88
:070D390000010A0EBE09BB18
:010D40002290
:10110800120FE47F017E00120FC47FCC120CF97F0E
:0411180044020CF988
:100E4900120FE47F017E00120FC47FCC120CF97FD0
:100E5900BE120CF9121022AB07121022EF30E30375
:100E69004307F0EFFEEBFFFDAC06EC12010EE4FBCD
:080E7900FA7980783D120003B4
:010E8100224E
:101078008F52C2B57F017E00120FC4D2B485528050
:0A1088007F017E00120FC4C2B422E3
:101092008F52D2B57F017E00120FC4D2B485528026
:0A10A2007F017E00120FC4C2B422C9
:0711CE00EF2480FF021078FE
:10116800EF60047F4080027F00EF24802DFF021093
:0111780078FE
:100E82007F381210787F381210787F381210787FEE
:100E9200011210787F061210787F017E00120FC4B3
:100EA2007F0C121078E4FDFF1211687F057E0002AC
:020EB2000FC46B
:080DC7008B4C8A4D894E8D4FC3
:100DCF00E4F551AD50802AAB4CAA4DA94E85518206
:100DDF007583001204E4FF601F12109205517F0506
:100DEF007E00120FC4E5502551540F70DA634F0186
:080DFF00FDAF4F12116880CF17
:010E070022C8
:1010C6008F7AAE03AF05AD06121168AF7A12109291
:0710D6007F057E00020FC43C
:0A11C4001210927F057E00020FC496
:0511DC007F0102107804
:0511E1007F02021078FE
:0F1179007F101210787F201210927F10021078D2
:0D118800EF60047F1480027F1012107822A7
:0D119500EF60047F1C80027F18121078228A
:1010DD008F7BE57BB401057F0F121078E57B7005E2
:0610ED007F0812107822BA
:100F5700252E306600252E316600252E32660025A7
:100F67002E3366003F065B4F666D7D077F6F777C8C
:050F7700395E797100F4
:080AE2008F1C8E1B8D1A8C196C
:100AEA00751DDFE4FFFEFDFCAB1CAA1BA91AA819A1
:100AFA00C31205FF70177580FFD2A7851D80C2A794
:100B0A00F580D2A6900F6B93F580C2A622AF1CAED9
:100B1A001BAD1AAC19EC4D4E4F605E7580FFD2A723
:100B2A00851D80C2A7E4F580D2A67B0AFAF9F8AF40
:100B3A001CAE1BAD1AAC1912055F746B2BF58274CF
:100B4A000F3AF583E493F580C2A6AF1CAE1BAD1A2B
:100B5A00AC19E47B0AFAF9F812055F8F1C8E1B8D1B
:100B6A001A8C19AF1D7801EF08800103D8FDF51D15
:090B7A007F037E00120FC4809479
:010B8300224F
:060C10008B688A69896A05
:100C1600756BDF1210F38F6CE56C60777580FFD211
:100C2600A7856B80C2A7E4F580D2A6FE74FF256C6B
:100C3600F582EE34FFF583AB68AA69A96A1204E46B
:100C4600FF24E0602824F3601F147026156CE56C01
:100C56007C0024FFF582EC34FFF5831204E4900F48
:100C66003B934480F5808011758040800CE4F580CC
:100C76008007EF900F3B93F580C2A6156CAF6B789B
:100C860001EF08800103D8FDF56B7F037E00120F8C
:030C9600C4808592
:010C99002238
:080C9A008F0B8E0A8D098C08F6
:100CA200E50C14601514601D1460252403703F7553
:100CB2004FFF75500F755157801F754FFF75500FBD
:100CC20075515C8014754FFF75500F755161800925
:100CD200754FFF75500F755166850B55850A548502
:100CE20009538508527B007A00790D1206CF7B00EA
:070CF2007A00790D020C10DD
:020EE300AE0758
:100EE5007FDFED14F8EF08800103D8FDFF7580FF63
:100EF500D2A78F80C2A7E4F580D2A6EE900F6B93A0
:040F0500F580C2A60B
:010F090022C5
:0611D500011F00011E00D5
:10111C00C2B5D2B6D2B400000000E580339209C249
:03112C00B4A20961
:01112F00229D
:10105C0012111C40FBC2B5C2B6C2B400008F800096
:0C106C00000000D2B400000000C2B4225A
:1010AC0012111C40FBD2B5C2B6C2B48F8000000036
:0A10BC0000D2B400000000C2B4220C
:100F3100D2B77F3012105C7F057E00120FC47F0C88
:100F410012105C7F057E00120FC47F0112105C7FBE
:060F5100057E00020FC442
:0B0EB400051F531F03F51EAD1EAF1FEE
:100EBF008F1F8D1EEF70047E808013BF01047E9004
:100ECF00800CBF02047E888005BF03027E98EE2D42
:040EDF00FF02105CA2
:080D41008B6D8A6E896FAF050E
:100D4900AD71120EBFE4FCAB6DAA6EA96F8C8275F2
:100D590083001204E4FF60241210AC0CAB6DAA6E80
:100D6900A96F8C827583001204E4FF1210AC0C0584
:0C0D79001EE51E540770D0120EB480CB93
:010D8500224B
:100FA000AF05AD76120EBF1204CBFF1210AC90004D
:100FB000011204E4FF1210AC051EE51E5407700375
:040FC000120EB42237
:101156007F0112105C7F057E00120FC4E4FDFF02C2
:021166000EBFBA
:0B11B900120EBF7FA11210AC0210ACA0
:02113000AC070A
:10113200E4FBAF04C374079BFD1211B90BBB08F2A9
:01114200228A
:10100300E51E700EE51FD394004009151F751E07DA
:0F1013008002151E120EBB7FA11210AC0210AC92
:10114300AE07BE01057F0C12105CEE70057F08121E
:03115300105C220B
:0411E60025730A0063
:100E0800759850E4F587C299D2AFD2AC53890F4395
:100E18008920EF8EF01206460E3404B00E380960B1
:100E28000E3C12C00E40258000000E427DE8800A6C
:100E38007DF480067DFA80027DFD8D8D8D8BD28EAE
:010E48002287
:0C11A200C2AC8F993099FDC299D2AC22EA
:10103F008B778A788979D2998B4F8A5089517BFF28
:0D104F007A1179E61206D53099FDC299227A
:10000300EC4D6011E8497017ED33EC3304600DE4F7
:10001300FCFFFEFD22E933E8330470F802017C1291
:10002300014758046009E4CC248150062850090292
:100033000186284003020183C0E0EB4A7044B98083
:1000430006D0E0FB020172EF4E701CBD8008EBFF8F
:10005300EAFEE9FD80EBE98DF0A4FEE5F00200EC99
:10006300E9CDF9EAFEEBFFEF89F0A4FCE5F0CE89D8
:10007300F0A42EFFE435F0CD89F0A42DFEE435F095
:100083008067EF4E7005BD80D780C3EF8BF0A4ACC3
:10009300F0EE8BF0A42CFCE435F0F8EF8AF0A42CFE
:1000A300E5F038FCE433CB8DF0A42CFCE5F03BF811
:1000B300EE8AF0A42CFCE5F038F8E433CF89F0A401
:1000C3002CFCE5F038CF3400CE89F0A42FFFE5F007
:1000D3003EFEE433C98DF0A42EFEE5F039CD8AF05F
:1000E300A42FFFE5F03EFEE43DFD33D0E0FB5007D7
:1000F3000BBB000F020186EC2CFCEF33FFEE33FE4B
:06010300ED33FD02015E78
:1001090075F020800E75F010800575F0087D007E71
:10011900007F003392D530D5031205F1EC3340103E
:10012900EF33FFEE33FEED33FDEC33FCD5F0ED227A
:0E013900E5F0247EA2D513CC92E7CDCEFF22B6
:10067300E563244FF8E6056322784C300702784F90
:10068300E475F0011206100204CB2000EB7F2ED29A
:10069300008018EF540F2490D43440D4FF30040B5F
:1006A300EF24BFB41A0050032461FFE56460021510
:1006B300640567E5677002056630070D784CE475DD
:1006C300F001120610EF020511020F0A7403D2079C
:1006D3008003E4C207F5638B4C8A4D894EE4F564CD
:1006E300F566F567E56460077F201206AE80F57551
:1006F30065FFC201C200C202C203C205C206C2082C
:1007030012067CFF700D3007057F001206BFAF672E
:10071300AE6622B4255FC2D5C20412067CFF24D084
:10072300B40A00501A75F00A786430D50508B6FF8C
:100733000106C6A426F620D5047002D20380D9246C
:10074300CFB41A00EF5004C2E5D2040209ACD201BF
:1007530080C6D20080C0D20280BCD2D580BAD20576
:1007630080B47F201206AE2002077401B5640040F6
:10077300F1120673FF1206AE0206E7D208D2068014
:1007830095120673FB120673FA120673F94A4B703D
:100793000679A37A0A7BFF20022EE564602A7E0095
:1007A3008E827583001204E460060EEE656570F0B8
:1007B300C2D5EBC0E0EAC0E0E9C0E0EE120A0CD01B
:1007C300E0F9D0E0FAD0E0FB1204CBFF60AAEBC063
:1007D300E0EAC0E0E9C0E01206AED0E02401F9D0BF
:1007E300E03400FAD0E0FBE5650460DCD565D98030
:1007F30087D20280A21209EF60F7E5657001041247
:100803000191A965600DE565600914F565120A9605
:10081300EF60F3EA30E702F404C3995077EAF42572
:10082300650430E701E404F565800D1209EF60C14A
:10083300EA05652565120191EA7862F630E701E47D
:10084300256504D5650420050114120A0CE4C0E0F3
:10085300120A967862E6601320E70714F6120696EA
:10086300802204F6D0E014C0E07F00120696E5650E
:10087300600712068D1565800B30050312068DD0B7
:10088300E00206E7D0E00480C51209EF60A0E56549
:10089300041201917862EAF6E5652005026001041D
:0508A3002404120A0C00
:1008A80074FF04C0E0120A96120696E56520050258
:1008B800600312068DD0E0B565E87F451206A07882
:1008C80062E67F2B30E7047F2DF404C0E01206AE09
:1008D800D0E075F00A84C0F0120697D0E0120697AF
:1008E8000206E7791080027908C206C2088008D299
:1008F800D5790A8004790AC2D5E565047002F565E0
:10090800E4FAFDFEFF120673FC7B082001131206B1
:1009180073FD7B1030000A120673FE120673FF7B0C
:1009280020EC3382D592D55013C3E43000069FFFE4
:10093800E49EFEE42001039DFDE49CFCE4CBF8C2A8
:1009480001EC700CCFCECDCCE824F8F870F380170A
:10095800C3EF33FFEE33FEED33FDEC33FCEB33FB3B
:10096800994002FB0FD8E9EB300105F8D0E0C44804
:10097800B201C0E00AEC4D4E4F78207B0070C2EA0D
:10098800B5650040BCC0E0120A0ED0F0D0E02001EE
:1009980004C4C0E0C4B201C0F0120697D0F0D5F08C
:1009A800EB0206E712062007845308EB5807554C5C
:1009B80007514208EF4F08F74408F749076A430808
:1009C800FD55082E46088C4507F8470AC3500759B5
:1009D8002D075D2E07802B076123077E200AAC2A8E
:1009E80007194800000778E565B4FF037565061226
:1009F8000673FC120673FD120673FE120673FF7867
:100A08005B0201C0790AA2D5200314300509B91088
:100A1800020404B9080104A2D520060250010420EA
:100A280002689202B564005034C0E07F2030031998
:100A38007F30A20272067205500F120A65C202C206
:100A480006C205C2087F30800F300503E9C0E012F6
:100A580006AE300503D0E0F9D0E0B564CC30051718
:100A68007F30B9100C1206AE7F583004077F7880AB
:100A780003B908031206AE3002057F2D0206AE7FC9
:100A8800202008F87F2B2006F322920280CF7F00D7
:100A9800B407005005245BF8E6FF22286E756C6CDD
:100AA8002900D2011206733001F8C201786430D5EA
:100AB8000108F60207192D504349581206732403FA
:100AC800B405004001E4900ABE9312069F743A12DE
:0A0AD800069FD2037564040208EBC8
:10014700E9D2E7C933E833F892D5EDD2E7CD33ECFE
:0701570033FC5002B2D52277
:10015E00EC30E7100FBF000C0EBE00080DBD000402
:10016E000BEB6014A2D5EB13FCED92E7FD2274FFAE
:10017E00FCFDFEFF22E480F8A2D574FF13FC7D8007
:03018E00E480EF1B
:10019100F920E72824F950037907E4F42402FB1835
:1001A100DBFDE624FB5014E9600DE4F618E604F6E5
:0F01B100B40A08E4F6D9F57401F60A22C2D52281
:1001C000ED33EC3392D5FA602AB4FF33EDC2E77B0E
:1001D000FF60067A0179E5E4227A0179EE20D50400
:1001E0007A0179E9224E614E002B494E46002D4995
:1001F0004E4600E47A08F608DAFC7B00740722E831
:10020000C0E0ECC0E0EDC0E0EEC0E0EFC0E0EA75B9
:10021000F010A4CAABF075F04DA42BFBE435F0FC54
:10022000EA2410FAEB34C5FBEC34D9FCEDC2E7FF4D
:1002300075F056A4F42411C5F0F434C58FF0A42A47
:10024000E5F03BE43CF620E71412048BD0E0FFD04D
:10025000E0FED0E0FDD0E0FC1203BE8014F40412F6
:10026000048BD0E0FFD0E0FED0E0FDD0E0FC120037
:1002700003D0E0F8E6FAEDD2E7CD33EC332482FB8D
:10028000E4C3CF33CFCE33CECD33CD33DBF37B07D7
:1002900075F00A846004F6081B0AE5F0F6088FF092
:1002A000740AA4FFACF08EF0740AA42CFEACF050DB
:1002B000010C8DF0740AA42CFDE435F0F608DBDEA9
:0302C0007407229E
:1002C30002017CE86480F8E933E83360110460F0EC
:1002D300ED33EC337009E8FCE9FDEAFEEBFF2204A1
:1002E30060DED3EB9FEA9EE99DE8C2E78CF0C2F79C
:1002F30095F0400CE8CCF8E9CDF9EACEFAEBCFFB68
:1003030012014785D0F05804700320D5B3E8047078
:10031300075002B2D502018692D5EC0460F7E4CC13
:10032300C0E0C398F8603B94186008400DD0E0FB30
:1003330002015EE4FBFAC9FC8028E830E406E4C964
:10034300FBE4CAFCE830E305E4C9CACBFCE8540784
:100353006010F8C3E913F9EA13FAEB13FBEC13FC8F
:10036300D8F130F52FC3E49CFCEF9BFFEE9AFEED32
:1003730099FDD0E0FBEF4E4D4C701222DB030201DE
:1003830083EC2CFCEF33FFEE33FEED33FDED30E772
:10039300EB02015EEF2BFFEE3AFEED39FDD0E0FB01
:1003A30050130BBB0003020186ED13FDEE13FEEFAA
:0803B30013FFEC13FC02015ED4
:1003BB00020186EC5D046005E85904700302017CC0
:1003CB00120147580460F6EC4860F2EC7004FDFE35
:1003DB00FF22C860DB2481C85009C3986002500615
:1003EB000201839850CAF582E9294B4A7005AB820A
:1003FB0002017275F0007C1A7880C3EF9BEE9AEDC8
:10040B0099400DC3EF9BFFEE9AFEED99FDE842F08C
:10041B00DC23ACF0D0E0FFD0E0FED0E0FDAB8220DF
:10042B00E7101BEB60BAEC2CFCEF33FFEE33FEED69
:10043B0033FD02015EE803F830E705C0F075F0000C
:10044B00EF2FFFEE33FEED33FD40B830E7C280AA4D
:10045B003F8000004120000042C80000447A0000A9
:10046B00461C400047C35000497424004B1896802B
:10047B004CBEBC205A0E1BCA6753C21C749DC5AE22
:10048B00FB60065407601C23231204B9EB5438603D
:10049B00091204A51204B4120003ECF8EDF9EEFAFC
:1004AB00EFCB22EB1204B480F1543803241C9004DC
:1004BB005BFE93FC0EEE93FD0EEE930ECE93FF229E
:100B9000020D86E493A3F8E493A34003F68001F2E8
:100BA00008DFF48029E493A3F85407240CC8C33366
:100BB000C4540F4420C8834004F456800146F6DF35
:100BC000E4800B01020408102040809011D5E47EDF
:100BD000019360BCA3FF543F30E509541FFEE4932A
:100BE000A360010ECF54C025E060A840B8E493A3F1
:100BF000FAE493A3F8E493A3C8C582C8CAC583CA1C
:100C0000F0A3C8C582C8CAC583CADFE9DEE780BED3
:0111DB000013
:1004CB00BB010689828A83E0225002E722BBFE022F
:0904DB00E32289828A83E4932262
:1004E400BB010CE58229F582E5833AF583E02250CD
:1004F40006E92582F8E622BBFE06E92582F8E22217
:0D050400E58229F582E5833AF583E4932230
:10051100BB010689828A83F0225002F722BBFE01C9
:02052100F322C3
:1005230075F008758200EF2FFFEE33FECD33CDCC8F
:1005330033CCC58233C5829BED9AEC99E582984012
:100543000CF582EE9BFEED9AFDEC99FC0FD5F0D6EF
:10055300E4CEFBE4CDFAE4CCF9A88222B800C1B919
:100563000059BA002DEC8BF084CFCECDFCE5F0CB57
:10057300F97818EF2FFFEE33FEED33FDEC33FCEB90
:1005830033FB10D703994004EB99FB0FD8E5E4F94B
:10059300FA227818EF2FFFEE33FEED33FDEC33FC38
:1005A300C933C910D7059BE99A4007EC9BFCE99A2C
:1005B300F90FD8E0E4C9FAE4CCFB2275F010EF2F71
:1005C300FFEE33FEED33FDCC33CCC833C810D70771
:1005D3009BEC9AE899400AED9BFDEC9AFCE899F8AC
:0E05E3000FD5F0DAE4CDFBE4CCFAE4C8F9223F
:0E05F100C3E49FFFE49EFEE49DFDE49CFC221B
:1005FF00EB9FF5F0EA9E42F0E99D42F0E89C45F052
:01060F0022C8
:10061000FAE6FB0808E6F925F0F618E6CA3AF622EB
:10062000D083D082F8E4937012740193700DA3A369
:1006300093F8740193F5828883E47374029368607D
:06064000EFA3A3A380DF7D
:10064600D083D082F8E4937012740193700DA3A343
:1006560093F8740193F5828883E473740293B5F07A
:0D066600067403936860E9A3A3A3A380D8E2
:100F0A00EFB40A07740D120F15740A309811A899D4
:100F1A00B8130CC2983098FDA899C298B811F63047
:070F2A0099FDC299F599221F
:1010F300E4FFFE1204CB600C0FEF70010E09E970E0
:05110300F20A80EF225A
:00000001FF
