:0300000002008774
:0C008700787FE4F6D8FD75810702009335
:0B009300D2A112005050FBB2A180F778
:02000300A9074B
:10000500E4FBFAE9FF7E007C037DE8120064D3EB94
:100015009FEA9E5015E4FFFE0FBF00010EEF646FCF
:0A0025004E70F50BBB00010A80D9F4
:01002F0022AE
:10003000E4FDFCC3ED9FEC9E5015E4FBFA0BBB0006
:0F004000010AEB64714A70F50DBD00010C80E4FC
:01004F00228E
:0B009E00EF1FAC0670011E4C70F62234
:1000760020A20C7F0A7E0012003020A202D322C3E7
:010086002257
:1000500020A20F7F0A7E0012003020A20530A2FDF0
:04006000D322C322C2
:10006400EF8DF0A4A8F0CF8CF0A428CE8DF0A42EB0
:02007400FE226A
:00000001FF
