:03000000020A7B76
:0C0A7B00787FE4F6D8FD75814B020AC2BA
:100E04008F36C2B57F017E00120D8BD2B485368039
:0A0E14007F017E00120D8BC2B42294
:100E1E008F36D2B57F017E00120D8BD2B48536800F
:0A0E2E007F017E00120D8BC2B4227A
:07000300EF2480FF020E0450
:100E7900EF60047F4080027F00EF24802DFF020E87
:010E89000464
:100D0E007F38120E047F38120E047F38120E047FC5
:100D1E0001120E047F06120E047F017E00120D8B4F
:100D2E007F0C120E04E4FDFF120E797F057E000289
:020D3E000D8B1B
:080C53008B308A3189328D33A8
:100C5B00E4F535AD34802AAB30AA31A93285358223
:100C6B0075830012055CFF601F120E1E05357F0594
:100C7B007E00120D8BE5342535540F70DA6333018A
:080C8B00FDAF33120E7980CF9A
:010C9300223E
:100E38008F10AE03AF05AD06120E79AF10120E1E5D
:070E48007F057E00020D8B07
:0A0EE600120E1E7F057E00020D8B28
:050F00007F01020E0458
:050F05007F02020E0452
:0F0E9A007F10120E047F20120E1E7F10020E0416
:0D0EA900EF60047F1480027F10120E0422FF
:0D0EB600EF60047F1C80027F18120E0422E2
:100E4F008F11E511B401057F0F120E04E511700526
:060E5F007F08120E0422C0
:100DAB00C2A27F677E00EF1F70011EEF4E70F7D25D
:0E0DBB00A27E007F04EF1F70011EEF4E70F746
:010DC9002207
:100D6700C2A20FBF0000D2A20FBF00000FBF00003A
:100D7700A2A292007E007F08EF1F70011EEF4E7047
:030D8700F7A200D0
:010D8A002246
:100DCA00E4FD7C01120D67E433FFC43333335480EE
:0C0DDA00FEEDC3134EFD0CBC09EAAF0592
:010DE60022EA
:100C0B007E01EF139200EFC313FF30001BC2A20B48
:100C1B00BB00000BBB0000D2A27A007B08EB1B7061
:100C2B00011AEB4A70F7801BC2A27A007B08EB1B00
:100C3B0070011AEB4A70F7D2A20BBB00010A0BBB77
:070C4B0000010A0EBE09BB07
:010C5200227F
:100E6500120DAB7F017E00120D8B7FCC120C0B7F18
:040E750044020C0B1C
:100CD500120DAB7F017E00120D8B7FCC120C0B7FAA
:100CE500BE120C0B120DCAAB07120DCAEF30E3038F
:100CF5004307F0EFFEEBFFFDAC06EC120186E4FBCB
:080D0500FA7980783D12000E1E
:010D0D0022C3
:0B0EDB0054656D703A20252E31660032
:0B0EC30001080002090000020B000003
:0A0EF000EF1F70011E144E70F72270
:100D8B00E4FDFCC3ED9FEC9E5015E4FBFA0BBB009E
:0F0D9B00010AEB64734A70F50DBD00010C80E492
:010DAA002226
:020BBE00AD0781
:100BC000E4FCECC39D5043E4FBFAC2A37FFA7E0031
:100BD000120EF0D2A37FFA7E00120EF00BBB0001C2
:100BE0000AEB64644A70E3E4FBFAC2A37FF47E017B
:100BF000120EF0D2A37FF47E01120EF00BBB0001A7
:0A0C00000AEB64324A70E30C80B87E
:010C0A0022C7
:100E8A005389F0438902E4F58CF58AD2AFD2A922BC
:060EFA00EF24FF928C22A0
:100B0700C2A4120D0E120E8A120E65120CD58F2575
:100B17008E248D238C227533FF75340E7535DB8F4C
:100B2700398E388D378C367B007A00792612066825
:100B37007B007A007926E4F534FD120C53E4FFFEBE
:100B47007DA07C41AB25AA24A923A8221201144029
:100B570006D2A47F018004C2A4E4FF120EFA7F200C
:070B67007E03120D8B80A13B
:03000B00020B6E77
:100B6E00C0E0C0D0E508701F050AE50A700205094D
:100B7E00B4E810E509B4030B750900750A00750891
:100B8E00018028B2A38024050CE50C7002050BB47D
:100B9E00E812E50BB4030D750B00750C00C28C75D5
:100BAE0008008007E50C20E002B2A3D0D0D0E032DE
:040F0A0025730A0041
:100C9400759850E4F587C299D2AFD2AC53890F430B
:100CA4008920EF8EF01205DF0CC004B00CC409607B
:100CB4000CC812C00CCC258000000CCE7DE8800A44
:100CC4007DF480067DFA80027DFD8D8D8D8BD28E24
:010CD40022FD
:0C0ECF00C2AC8F993099FDC299D2AC22C0
:100DE7008B0D8A0E890FD2998B338A3489357BFF15
:0D0DF7007A0F790A12066E3099FDC299221A
:10000E00EC4D6011E8497017ED33EC3304600DE4EC
:10001E00FCFFFEFD22E933E8330470F80201F4120E
:10002E0001BF58046009E4CC24815006285009020F
:10003E0001FE2840030201FBC0E0EB4A7044B98088
:10004E0006D0E0FB0201EAEF4E701CBD8008EBFF0C
:10005E00EAFEE9FD80EBE98DF0A4FEE5F00200F783
:10006E00E9CDF9EAFEEBFFEF89F0A4FCE5F0CE89CD
:10007E00F0A42EFFE435F0CD89F0A42DFEE435F08A
:10008E008067EF4E7005BD80D780C3EF8BF0A4ACB8
:10009E00F0EE8BF0A42CFCE435F0F8EF8AF0A42CF3
:1000AE00E5F038FCE433CB8DF0A42CFCE5F03BF806
:1000BE00EE8AF0A42CFCE5F038F8E433CF89F0A4F6
:1000CE002CFCE5F038CF3400CE89F0A42FFFE5F0FC
:1000DE003EFEE433C98DF0A42EFEE5F039CD8AF054
:1000EE00A42FFFE5F03EFEE43DFD33D0E0FB5007CC
:1000FE000BBB000F0201FEEC2CFCEF33FFEE33FEC8
:06010E00ED33FD0201D6F5
:1001140074F8CC6480CCC86480C8F582046043C39E
:10012400EB9FF5F0EA9E42F0E99D42F0E89C45F031
:1001340060305018E5825FFFE582F42B5582FB5056
:10014400210ABA001D09B90019088016E5825BFB73
:10015400E582F42F5582FF50090EBE00050DBD0047
:10016400010CC3EB9FF5F0EA9E42F0E99D42F0E8F2
:0D0174009C45F06007CC4820E701B3EC2269
:1001810075F020800E75F010800575F0087D007EF9
:10019100007F003392D530D50312059BEC3340101C
:1001A100EF33FFEE33FEED33FDEC33FCD5F0ED2202
:0E01B100E5F0247EA2D513CC92E7CDCEFF223E
:10060C00E5472433F8E60547227830300702783383
:10061C00E475F0011205A90205432000EB7F2ED2F0
:10062C00008018EF540F2490D43440D4FF30040BC6
:10063C00EF24BFB41A0050032461FFE54860021593
:10064C0048054BE54B7002054A30070D7830E475D0
:10065C00F0011205A9EF020589020D407403D207BF
:10066C008003E4C207F5478B308A318932E4F548C0
:10067C00F54AF54BE54860077F2012064780F57573
:10068C0049FFC201C200C202C203C205C206C208AF
:10069C00120615FF700D3007057F00120658AF4B80
:1006AC00AE4A22B4255FC2D5C204120615FF24D06F
:1006BC00B40A00501A75F00A784830D50508B6FF10
:1006CC000106C6A426F620D5047002D20380D924D4
:1006DC00CFB41A00EF5004C2E5D204020945D2018E
:1006EC0080C6D20080C0D20280BCD2D580BAD205DE
:1006FC0080B47F201206472002077401B5480040E1
:10070C00F112060CFF120647020680D208D20680B0
:10071C009512060CFB12060CFA12060CF94A4B70D9
:10072C0006793C7A0A7BFF20022EE548602A7E007F
:10073C008E8275830012055C60060EEE654970F0C2
:10074C00C2D5EBC0E0EAC0E0E9C0E0EE1209A5D0EA
:10075C00E0F9D0E0FAD0E0FB120543FF60AAEBC051
:10076C00E0EAC0E0E9C0E0120647D0E02401F9D08D
:10077C00E03400FAD0E0FBE5490460DCD549D980CF
:10078C0087D20280A212098860F7E5497001041231
:10079C000209A949600DE549600914F549120A2FAF
:1007AC00EF60F3EA30E702F404C3995077EAF425DA
:1007BC00490430E701E404F549800D12098860C151
:1007CC00EA05492549120209EA7846F630E701E4C0
:1007DC00254904D54904200501141209A5E4C0E0FB
:1007EC00120A2F7846E6601320E70714F612062F3C
:1007FC00802204F6D0E014C0E07F0012062FE549F9
:10080C0060071206261549800B300503120626D008
:10081C00E0020680D0E00480C512098860A0E5499A
:10082C00041202097846EAF6E54920050260010443
:05083C0024041209A5CF
:1008410074FF04C0E0120A2F12062FE549200502A9
:100851006003120626D0E0B549E87F4512063978D3
:1008610046E67F2B30E7047F2DF404C0E0120647F3
:10087100D0E075F00A84C0F0120630D0E0120630E4
:10088100020680791080027908C206C2088008D267
:10089100D5790A8004790AC2D5E549047002F5497F
:1008A100E4FAFDFEFF12060CFC7B08200113120680
:1008B1000CFD7B1030000A12060CFE12060CFF7BA9
:1008C10020EC3382D592D55013C3E43000069FFF4C
:1008D100E49EFEE42001039DFDE49CFCE4CBF8C210
:1008E10001EC700CCFCECDCCE824F8F870F3801772
:1008F100C3EF33FFEE33FEED33FDEC33FCEB33FBA3
:10090100994002FB0FD8E9EB300105F8D0E0C4486B
:10091100B201C0E00AEC4D4E4F78207B0070C2EA74
:10092100B5490040BCC0E01209A7D0F0D0E02001D9
:1009310004C4C0E0C4B201C0F0120630D0F0D5F05A
:10094100EB0206801205B9071D5308845806EE4CC8
:1009510006EA4208884F0890440890490703430873
:10096100965507C7460825450791470A5C5006F288
:100971002D06F62E07192B06FA230717200A452AFA
:1009810006B24800000711E549B4FF037549061294
:10099100060CFC12060CFD12060CFE12060CFF786A
:1009A1003F020238790AA2D5200314300509B91093
:1009B100020404B9080104A2D52006025001042052
:1009C10002689202B548005034C0E07F203003191C
:1009D1007F30A20272067205500F1209FEC202C2D6
:1009E10006C205C2087F30800F300503E9C0E0125E
:1009F1000647300503D0E0F9D0E0B548CC30051703
:100A01007F30B9100C1206477F583004077F788079
:100A110003B908031206473002057F2D0206477FFE
:100A2100202008F87F2B2006F322920280CF7F003E
:100A3100B407005005243FF8E6FF22286E756C6C60
:100A41002900D20112060C3001F8C201784830D5D4
:100A51000108F60206B22D5043495812060C240330
:100A6100B405004001E4900A5793120638743A1213
:0A0A71000638D20375480402088419
:1001BF00E9D2E7C933E833F892D5EDD2E7CD33EC86
:0701CF0033FC5002B2D522FF
:1001D600EC30E7100FBF000C0EBE00080DBD00048A
:1001E6000BEB6014A2D5EB13FCED92E7FD2274FF36
:1001F600FCFDFEFF22E480F8A2D574FF13FC7D808F
:03020600E480EFA2
:10020900F920E72824F950037907E4F42402FB18BC
:10021900DBFDE624FB5014E9600DE4F618E604F66C
:0F022900B40A08E4F6D9F57401F60A22C2D52208
:10023800ED33EC3392D5FA602AB4FF33EDC2E77B95
:10024800FF60067A02795DE4227A02796620D50495
:100258007A027961224E614E002B494E46002D49A3
:100268004E4600E47A08F608DAFC7B00740722E8B8
:10027800C0E0ECC0E0EDC0E0EEC0E0EFC0E0EA7541
:10028800F010A4CAABF075F04DA42BFBE435F0FCDC
:10029800EA2410FAEB34C5FBEC34D9FCEDC2E7FFD5
:1002A80075F056A4F42411C5F0F434C58FF0A42ACF
:1002B800E5F03BE43CF620E714120503D0E0FFD05C
:1002C800E0FED0E0FDD0E0FC1204368014F4041205
:1002D8000503D0E0FFD0E0FED0E0FDD0E0FC120046
:1002E8000ED0E0F8E6FAEDD2E7CD33EC332482FB0A
:1002F800E4C3CF33CFCE33CECD33CD33DBF37B075F
:1003080075F00A846004F6081B0AE5F0F6088FF019
:10031800740AA4FFACF08EF0740AA42CFEACF05062
:10032800010C8DF0740AA42CFDE435F0F608DBDE30
:0303380074072225
:10033B000201F4E86480F8E933E83360110460F0FB
:10034B00ED33EC337009E8FCE9FDEAFEEBFF220428
:10035B0060DED3EB9FEA9EE99DE8C2E78CF0C2F723
:10036B0095F0400CE8CCF8E9CDF9EACEFAEBCFFBEF
:10037B001201BF85D0F05804700320D5B3E8047088
:10038B00075002B2D50201FE92D5EC0460F7E4CC23
:10039B00C0E0C398F8603B94186008400DD0E0FBB8
:1003AB000201D6E4FBFAC9FC8028E830E406E4C974
:1003BB00FBE4CAFCE830E305E4C9CACBFCE854070C
:1003CB006010F8C3E913F9EA13FAEB13FBEC13FC17
:1003DB00D8F130F52FC3E49CFCEF9BFFEE9AFEEDBA
:1003EB0099FDD0E0FBEF4E4D4C701222DB03020166
:1003FB00FBEC2CFCEF33FFEE33FEED33FDED30E782
:10040B00EB0201D6EF2BFFEE3AFEED39FDD0E0FB10
:10041B0050130BBB00030201FEED13FDEE13FEEFB9
:08042B0013FFEC13FC0201D6E3
:100433000201FEEC5D046005E8590470030201F457
:100443001201BF580460F6EC4860F2EC7004FDFE44
:10045300FF22C860DB2481C85009C398600250069C
:100463000201FB9850CAF582E9294B4A7005AB8219
:100473000201EA75F0007C1A7880C3EF9BEE9AEDD7
:1004830099400DC3EF9BFFEE9AFEED99FDE842F014
:10049300DC23ACF0D0E0FFD0E0FED0E0FDAB822067
:1004A300E7101BEB60BAEC2CFCEF33FFEE33FEEDF1
:1004B30033FD0201D6E803F830E705C0F075F0001C
:1004C300EF2FFFEE33FEED33FD40B830E7C280AAD5
:1004D3003F8000004120000042C80000447A000031
:1004E300461C400047C35000497424004B189680B3
:1004F3004CBEBC205A0E1BCA6753C21C749DC5AEAA
:10050300FB60065407601C2323120531EB5438604B
:100513000912051D12052C12000EECF8EDF9EEFA86
:10052300EFCB22EB12052C80F1543803241C9004EA
:10053300D3FE93FC0EEE93FD0EEE930ECE93FF22AD
:100A8700020B07E493A3F8E493A34003F68001F273
:100A970008DFF48029E493A3F85407240CC8C33370
:100AA700C4540F4420C8834004F456800146F6DF3F
:100AB700E4800B0102040810204080900EC3E47EFE
:100AC700019360BCA3FF543F30E509541FFEE49334
:100AD700A360010ECF54C025E060A840B8E493A3FB
:100AE700FAE493A3F8E493A3C8C582C8CAC583CA26
:100AF700F0A3C8C582C8CAC583CADFE9DEE780BEDE
:010ECE000023
:10054300BB010689828A83E0225002E722BBFE02B6
:09055300E32289828A83E49322E9
:10055C00BB010CE58229F582E5833AF583E0225054
:10056C0006E92582F8E622BBFE06E92582F8E2229E
:0D057C00E58229F582E5833AF583E49322B8
:10058900BB010689828A83F0225002F722BBFE0151
:02059900F3224B
:0E059B00C3E49FFFE49EFEE49DFDE49CFC2271
:1005A900FAE6FB0808E6F925F0F618E6CA3AF62253
:1005B900D083D082F8E4937012740193700DA3A3D1
:1005C90093F8740193F5828883E4737402936860E5
:0605D900EFA3A3A380DFE5
:1005DF00D083D082F8E4937012740193700DA3A3AB
:1005EF0093F8740193F5828883E473740293B5F0E2
:0D05FF00067403936860E9A3A3A3A380D84A
:100D4000EFB40A07740D120D4B740A309811A8996C
:100D5000B8130CC2983098FDA899C298B811F63013
:070D600099FDC299F59922EB
:00000001FF
