:03000000020CDF10
:0C0CDF00787FE4F6D8FD758179020D26BF
:0B116A0054656D703A20252E316600A0
:0B115E0001080002090000020B000065
:0A117500EF1F70011E144E70F722E8
:10102800E4FDFCC3ED9FEC9E5015E4FBFA0BBB00FE
:0F103800010AEB64734A70F50DBD00010C80E4F2
:011047002286
:020E2000AD071C
:100E2200E4FCECC39D5043E4FBFAC2957FFA7E00DA
:100E3200121175D2957FFA7E001211750BBB00015B
:100E42000AEB64644A70E3E4FBFAC2957FF47E0124
:100E5200121175D2957FF47E011211750BBB000140
:0A0E62000AEB64324A70E30C80B81A
:010E6C002263
:101125005389F0438902E4F58CF58AD2AFD2A9221E
:06118900EF24FF928C220E
:100D6B00C2A0120F321211251210EF120EF98F536F
:100D7B008E528D518C507561FF75621175636A8F40
:100D8B00678E668D658C647B007A0079541207FF41
:100D9B007B007A007954E4F562FD120F64E4FFFEE8
:100DAB007DA07C41AB53AA52A951A850120114400B
:100DBB0009D2A07F03120E208002C2A07F207E03E7
:050DCB0012102880A3B6
:03000B00020DD013
:100DD000C0E0C0D0E508701F050AE50A70020509E9
:100DE000B4E810E509B4030B750900750A0075082D
:100DF000018028B2958024050CE50C7002050BB427
:100E0000E812E50BB4030D750B00750C00C28C7570
:100E100008008007E50C20E002B295D0D0D0E03287
:10104800C2B77F677E00EF1F70011EEF4E70F7D2A8
:0E105800B77E007F04EF1F70011EEF4E70F791
:011066002267
:100FBC00C2B70FBF0000D2B70FBF00000FBF0000B9
:100FCC00A2B792007E007F08EF1F70011EEF4E70DB
:030FDC00F7A20079
:010FDF0022EF
:1010A500E4FD7C01120FBCE433FFC43333335480B9
:0C10B500FEEDC3134EFD0CBC09EAAF05B4
:0110C100220C
:100E6D007E01EF139200EFC313FF30001BC2B70BCF
:100E7D00BB00000BBB0000D2B77A007B08EB1B70E8
:100E8D00011AEB4A70F7801BC2B77A007B08EB1B87
:100E9D0070011AEB4A70F7D2B70BBB00010A0BBBFE
:070EAD0000010A0EBE09BBA3
:010EB400221B
:1010EF001210487F017E001210287FCC120E6D7FE8
:0410FF0044020E6D2C
:100EF9001210487F017E001210287FCC120E6D7FE0
:100F0900BE120E6D1210A5AB071210A5EF30E30348
:100F19004307F0EFFEEBFFFDAC06EC120186E4FBA4
:080F2900FA7980783D12000EF8
:010F3100229D
:10111400202020202020202020200000000000008B
:0111240000CA
:101067007580FFC2A67F057E00121028D2A5D2A7E1
:0E1077007F057E00121028E5805480FFC2A77E
:011085002248
:100FE0008F64121067EF640160F8C2A67F017E0073
:100FF000121028C2A5D2A78564807F017E0012103E
:0410000028C2A72239
:101004008F64121067EF640160F8D2A67F017E003E
:10101400121028C2A5D2A78564807F017E00121019
:0410240028C2A72215
:101086007580FFC2A67F057E00121028D2A5D2A7C2
:0E1096007F057E00121028E580547FFFC2A760
:0110A4002229
:07000300EF2480FF020FE073
:10110300EF60047F4080027F00EF24802DFF020FF9
:01111300E0FB
:100F32007F38120FE07F38120FE07F38120FE07F08
:100F420001120FE07F06120FE07F017E00121028CF
:100F52007F0C120FE0E4FDFF1211037F057E0002F9
:020F6200102855
:080F64008B5E8A5F8960AF0516
:100F6C00E4F563AD62121103AB5EAA5FA960856301
:100F7C0082758300120652FF600E12100405637F07
:080F8C00057E0012102880E030
:010F9400223A
:080C12008F258E248D238C2216
:100C1A00E4F528F529783B7C00FD7BFF7A117914ED
:100C2A00FE7F11120613AF25AE24AD23AC22EC339E
:100C3A005005120691804285254F85244E85234D05
:100C4A0085224CAF4FAE4EAD4DAC4CEC4D4E4F6085
:100C5A0032E47B0AFAF9F8120EB5EB2430FFAE281B
:100C6A000528742A2EF8A607AF4FAE4EAD4DAC4CF0
:100C7A00E47B0AFAF9F8120EB58F4F8E4E8D4D8C21
:100C8A004C80C0AF281528742A2FF8E4F6AC22EC61
:100C9A0033500AAF290529743B2FF8762DE52860D1
:100CAA0015FF1528742A2FF8E6FFAE290529743B8B
:100CBA002EF8A60780E7742A2528F8E6FFAE29054C
:100CCA0029743B2EF8A6077B007A00793B852762B8
:050CDA00AD26020F64CD
:1010C2008F0DAE03AF05AD06121103AF0D12100462
:0710D2007F057E00021028DB
:0A117F001210047F057E0002102804
:05118F007F01020FE0EA
:051194007F02020FE0E4
:0F1135007F10120FE07F201210047F10020FE0D6
:0D114400EF60047F1480027F10120FE02284
:0D115100EF60047F1C80027F18120FE02267
:1010D9008F0EE50EB401057F0F120FE0E50E7005C6
:0610E9007F08120FE02257
:10000E00EC4D6011E8497017ED33EC3304600DE4EC
:10001E00FCFFFEFD22E933E8330470F80201F4120E
:10002E0001BF58046009E4CC24815006285009020F
:10003E0001FE2840030201FBC0E0EB4A7044B98088
:10004E0006D0E0FB0201EAEF4E701CBD8008EBFF0C
:10005E00EAFEE9FD80EBE98DF0A4FEE5F00200F783
:10006E00E9CDF9EAFEEBFFEF89F0A4FCE5F0CE89CD
:10007E00F0A42EFFE435F0CD89F0A42DFEE435F08A
:10008E008067EF4E7005BD80D780C3EF8BF0A4ACB8
:10009E00F0EE8BF0A42CFCE435F0F8EF8AF0A42CF3
:1000AE00E5F038FCE433CB8DF0A42CFCE5F03BF806
:1000BE00EE8AF0A42CFCE5F038F8E433CF89F0A4F6
:1000CE002CFCE5F038CF3400CE89F0A42FFFE5F0FC
:1000DE003EFEE433C98DF0A42EFEE5F039CD8AF054
:1000EE00A42FFFE5F03EFEE43DFD33D0E0FB5007CC
:1000FE000BBB000F0201FEEC2CFCEF33FFEE33FEC8
:06010E00ED33FD0201D6F5
:1001140074F8CC6480CCC86480C8F582046043C39E
:10012400EB9FF5F0EA9E42F0E99D42F0E89C45F031
:1001340060305018E5825FFFE582F42B5582FB5056
:10014400210ABA001D09B90019088016E5825BFB73
:10015400E582F42F5582FF50090EBE00050DBD0047
:10016400010CC3EB9FF5F0EA9E42F0E99D42F0E8F2
:0D0174009C45F06007CC4820E701B3EC2269
:1001810075F020800E75F010800575F0087D007EF9
:10019100007F003392D530D503120691EC33401025
:1001A100EF33FFEE33FEED33FDEC33FCD5F0ED2202
:0E01B100E5F0247EA2D513CC92E7CDCEFF223E
:1007A300E5752461F8E6057522785E300702786105
:1007B300E475F00112069F0206392000EB7F2ED26A
:1007C300008018EF540F2490D43440D4FF30040B2E
:1007D300EF24BFB41A0050032461FFE576600215CD
:1007E300760579E5797002057830070D785EE47552
:1007F300F00112069FEF02067F020F957403D207E2
:100803008003E4C207F5758B5E8A5F8960E4F57641
:10081300F578F579E57660077F201207DE80F575B8
:1008230077FFC201C200C202C203C205C206C208E8
:100833001207ACFF700D3007057F001207EFAF7989
:10084300AE7822B4255FC2D5C2041207ACFF24D010
:10085300B40A00501A75F00A787630D50508B6FF49
:100863000106C6A426F620D5047002D20380D9243B
:10087300CFB41A00EF5004C2E5D204020ADCD2015D
:1008830080C6D20080C0D20280BCD2D580BAD20545
:1008930080B47F201207DE2002077401B576004082
:1008A300F11207A3FF1207DE020817D208D206804F
:1008B300951207A3FB1207A3FA1207A3F94A4B7079
:1008C3000679D37A0B7BFF20022EE576602A7E0021
:1008D3008E8275830012065260060EEE657770F005
:1008E300C2D5EBC0E0EAC0E0E9C0E0EE120B3CD0B9
:1008F300E0F9D0E0FAD0E0FB120639FF60AAEBC0C2
:10090300E0EAC0E0E9C0E01207DED0E02401F9D05C
:10091300E03400FAD0E0FBE5770460DCD577D980DA
:1009230087D20280A2120B1F60F7E57770010412D1
:100933000209A977600DE577600914F577120BC6F4
:10094300EF60F3EA30E702F404C3995077EAF42541
:10095300770430E701E404F577800D120B1F60C1C3
:10096300EA05772577120209EA7874F630E701E49D
:10097300257704D5770420050114120B3CE4C0E06D
:10098300120BC67874E6601320E70714F61207C645
:10099300802204F6D0E014C0E07F001207C6E5779A
:1009A30060071207BD1577800B3005031207BDD012
:1009B300E0020817D0E00480C5120B1F60A0E577A2
:1009C300041202097874EAF6E5772005026001044F
:0509D3002404120B3C9E
:1009D80074FF04C0E0120BC61207C6E577200502B3
:1009E80060031207BDD0E0B577E87F451207D078DD
:1009F80074E67F2B30E7047F2DF404C0E01207DE95
:100A0800D0E075F00A84C0F01207C7D0E01207C71B
:100A1800020817791080027908C206C2088008D235
:100A2800D5790A8004790AC2D5E577047002F5778A
:100A3800E4FAFDFEFF1207A3FC7B0820011312074E
:100A4800A3FD7B1030000A1207A3FE1207A3FF7B49
:100A580020EC3382D592D55013C3E43000069FFFB3
:100A6800E49EFEE42001039DFDE49CFCE4CBF8C277
:100A780001EC700CCFCECDCCE824F8F870F38017D9
:100A8800C3EF33FFEE33FEED33FDEC33FCEB33FB0A
:100A9800994002FB0FD8E9EB300105F8D0E0C448D3
:100AA800B201C0E00AEC4D4E4F78207B0070C2EADC
:100AB800B5770040BCC0E0120B3ED0F0D0E020017A
:100AC80004C4C0E0C4B201C0F01207C7D0F0D5F02A
:100AD800EB0208171206AF08B4530A1B5808854CD6
:100AE8000881420A1F4F0A27440A2749089A430ADD
:100AF8002D55095E4609BC450928470BF35008895E
:100B08002D088D2E08B02B08912308AE200BDC2A67
:100B1800084948000008A8E577B4FF03757706126E
:100B280007A3FC1207A3FD1207A3FE1207A3FF7871
:100B38006D020238790AA2D5200314300509B910CC
:100B4800020404B9080104A2D520060250010420B9
:100B580002689202B576005034C0E07F2030031955
:100B68007F30A20272067205500F120B95C202C2A4
:100B780006C205C2087F30800F300503E9C0E012C5
:100B880007DE300503D0E0F9D0E0B576CC300517A4
:100B98007F30B9100C1207DE7F583004077F788049
:100BA80003B908031207DE3002057F2D0207DE7F36
:100BB800202008F87F2B2006F322920280CF7F00A6
:100BC800B407005005246DF8E6FF22286E756C6C9A
:100BD8002900D2011207A33001F8C201787630D576
:100BE8000108F60208492D504349581207A3240367
:100BF800B405004001E4900BEE931207CF743A124B
:0A0C080007CFD203757604020A1B21
:1001BF00E9D2E7C933E833F892D5EDD2E7CD33EC86
:0701CF0033FC5002B2D522FF
:1001D600EC30E7100FBF000C0EBE00080DBD00048A
:1001E6000BEB6014A2D5EB13FCED92E7FD2274FF36
:1001F600FCFDFEFF22E480F8A2D574FF13FC7D808F
:03020600E480EFA2
:10020900F920E72824F950037907E4F42402FB18BC
:10021900DBFDE624FB5014E9600DE4F618E604F66C
:0F022900B40A08E4F6D9F57401F60A22C2D52208
:10023800ED33EC3392D5FA602AB4FF33EDC2E77B95
:10024800FF60067A02795DE4227A02796620D50495
:100258007A027961224E614E002B494E46002D49A3
:100268004E4600E47A08F608DAFC7B00740722E8B8
:10027800C0E0ECC0E0EDC0E0EEC0E0EFC0E0EA7541
:10028800F010A4CAABF075F04DA42BFBE435F0FCDC
:10029800EA2410FAEB34C5FBEC34D9FCEDC2E7FFD5
:1002A80075F056A4F42411C5F0F434C58FF0A42ACF
:1002B800E5F03BE43CF620E714120503D0E0FFD05C
:1002C800E0FED0E0FDD0E0FC1204368014F4041205
:1002D8000503D0E0FFD0E0FED0E0FDD0E0FC120046
:1002E8000ED0E0F8E6FAEDD2E7CD33EC332482FB0A
:1002F800E4C3CF33CFCE33CECD33CD33DBF37B075F
:1003080075F00A846004F6081B0AE5F0F6088FF019
:10031800740AA4FFACF08EF0740AA42CFEACF05062
:10032800010C8DF0740AA42CFDE435F0F608DBDE30
:0303380074072225
:10033B000201F4E86480F8E933E83360110460F0FB
:10034B00ED33EC337009E8FCE9FDEAFEEBFF220428
:10035B0060DED3EB9FEA9EE99DE8C2E78CF0C2F723
:10036B0095F0400CE8CCF8E9CDF9EACEFAEBCFFBEF
:10037B001201BF85D0F05804700320D5B3E8047088
:10038B00075002B2D50201FE92D5EC0460F7E4CC23
:10039B00C0E0C398F8603B94186008400DD0E0FBB8
:1003AB000201D6E4FBFAC9FC8028E830E406E4C974
:1003BB00FBE4CAFCE830E305E4C9CACBFCE854070C
:1003CB006010F8C3E913F9EA13FAEB13FBEC13FC17
:1003DB00D8F130F52FC3E49CFCEF9BFFEE9AFEEDBA
:1003EB0099FDD0E0FBEF4E4D4C701222DB03020166
:1003FB00FBEC2CFCEF33FFEE33FEED33FDED30E782
:10040B00EB0201D6EF2BFFEE3AFEED39FDD0E0FB10
:10041B0050130BBB00030201FEED13FDEE13FEEFB9
:08042B0013FFEC13FC0201D6E3
:100433000201FEEC5D046005E8590470030201F457
:100443001201BF580460F6EC4860F2EC7004FDFE44
:10045300FF22C860DB2481C85009C398600250069C
:100463000201FB9850CAF582E9294B4A7005AB8219
:100473000201EA75F0007C1A7880C3EF9BEE9AEDD7
:1004830099400DC3EF9BFFEE9AFEED99FDE842F014
:10049300DC23ACF0D0E0FFD0E0FED0E0FDAB822067
:1004A300E7101BEB60BAEC2CFCEF33FFEE33FEEDF1
:1004B30033FD0201D6E803F830E705C0F075F0001C
:1004C300EF2FFFEE33FEED33FD40B830E7C280AAD5
:1004D3003F8000004120000042C80000447A000031
:1004E300461C400047C35000497424004B189680B3
:1004F3004CBEBC205A0E1BCA6753C21C749DC5AEAA
:10050300FB60065407601C2323120531EB5438604B
:100513000912051D12052C12000EECF8EDF9EEFA86
:10052300EFCB22EB12052C80F1543803241C9004EA
:10053300D3FE93FC0EEE93FD0EEE930ECE93FF22AD
:100CEB00020D6BE493A3F8E493A34003F68001F2A7
:100CFB0008DFF48029E493A3F85407240CC8C3330A
:100D0B00C4540F4420C8834004F456800146F6DFD8
:100D1B00E4800B010204081020408090115EE47EF9
:100D2B00019360BCA3FF543F30E509541FFEE493CD
:100D3B00A360010ECF54C025E060A840B8E493A394
:100D4B00FAE493A3F8E493A3C8C582C8CAC583CABF
:100D5B00F0A3C8C582C8CAC583CADFE9DEE780BE77
:011169000085
:10054300E709F608DFFA8046E709F208DFFA803E9A
:1005530088828C83E709F0A3DFFA8032E309F60887
:10056300DFFA8078E309F208DFFA807088828C83EF
:10057300E309F0A3DFFA806489828A83E0A3F608A3
:10058300DFFA805889828A83E0A3F208DFFA804C7D
:1005930080D280FA80C680D4806980F28033801054
:1005A30080A680EA809A80A880DA80E280CA8033BD
:1005B30089828A83ECFAE493A3C8C582C8CCC58335
:1005C300CCF0A3C8C582C8CCC583CCDFE9DEE78005
:1005D3000D89828A83E493A3F608DFF9ECFAA9F084
:1005E300EDFB2289828A83ECFAE0A3C8C582C8CCDA
:1005F300C583CCF0A3C8C582C8CCC583CCDFEADEF3
:10060300E880DB89828A83E493A3F208DFF980CC54
:1006130088F0EF60010E4E60C388F0ED2402B4044D
:100623000050B9F582EB2402B4040050AF232345F4
:0606330082239005937381
:10063900BB010689828A83E0225002E722BBFE02BF
:09064900E32289828A83E49322F2
:10065200BB010CE58229F582E5833AF583E022505D
:1006620006E92582F8E622BBFE06E92582F8E222A7
:0D067200E58229F582E5833AF583E49322C1
:10067F00BB010689828A83F0225002F722BBFE015A
:02068F00F32254
:100EB500C2D5E830E70FB2D5E4C39BFBE49AFAE468
:100EC50099F9E498F8EC30E717B2D5120EEB120752
:100ED50011E4C39BFBE49AFAE499F9E498F88003DA
:100EE50012071130D50DE4C39FFFE49EFEE49DFD7E
:040EF500E49CFC225B
:0E069100C3E49FFFE49EFEE49DFDE49CFC227A
:10069F00FAE6FB0808E6F925F0F618E6CA3AF6225C
:1006AF00D083D082F8E4937012740193700DA3A3DA
:1006BF0093F8740193F5828883E4737402936860EE
:0606CF00EFA3A3A380DFEE
:100F9500EFB40A07740D120FA0740A309811A899BE
:100FA500B8130CC2983098FDA899C298B811F630BC
:070FB50099FDC299F5992294
:1006D50075F008758200EF2FFFEE33FECD33CDCCDC
:1006E50033CCC58233C5829BED9AEC99E58298405F
:1006F5000CF582EE9BFEED9AFDEC99FC0FD5F0D63C
:10070500E4CEFBE4CDFAE4CCF9A88222B800C1B965
:100715000059BA002DEC8BF084CFCECDFCE5F0CBA3
:10072500F97818EF2FFFEE33FEED33FDEC33FCEBDC
:1007350033FB10D703994004EB99FB0FD8E5E4F997
:10074500FA227818EF2FFFEE33FEED33FDEC33FC84
:10075500C933C910D7059BE99A4007EC9BFCE99A78
:10076500F90FD8E0E4C9FAE4CCFB2275F010EF2FBD
:10077500FFEE33FEED33FDCC33CCC833C810D707BD
:100785009BEC9AE899400AED9BFDEC9AFCE899F8F8
:0E0795000FD5F0DAE4CDFBE4CCFAE4C8F9228B
:00000001FF
