:0300000002037E7A
:0C037E00787FE4F6D8FD758119020303B6
:1003030012035950FB750BFF750C01750DAA900173
:10031300DCE493F50E7BFF7A0179C312024380E597
:0202D600A90776
:1002D800E4FBFAE9FF7E007C037DE8120030D3EBF3
:1002E8009FEA9E5015E4FFFE0FBF00010EEF646FFA
:0A02F8004E70F50BBB00010A80D91F
:0103020022D8
:10032300E4FDFCC3ED9FEC9E5015E4FBFA0BBB0010
:0F033300010AEB64714A70F50DBD00010C80E406
:010342002298
:0B038A00EF1FAC0670011E4C70F62245
:10036D0020A20C7F0A7E0012032320A202D322C3F7
:01037D00225D
:1003590020A20F7F0A7E0012032320A20530A2FDEE
:04036900D322C322B6
:10013D00000001060126014A015D018801B801EEAA
:10014D00020B024B029302BA0310037003DC041678
:10015D00049705260575062006E007B808090A0864
:10016D0008090A080A0B0C0A0B0C0C0D0C0B0A08DB
:10017D000C0D0C0B0A080A05080A050802020202FA
:10018D000202020202020402020401010101020242
:10019D00010101010202020204020204200505060A
:1001AD0005080705050605090805050C0A080706D3
:1001BD000B0B0A08090802010303030402010303E0
:1001CD0003040201030303030302010303030419E0
:0801DD008E108F118C128D139E
:1001E500AE12AF13AB07AA06E4F9F87F507EC3FD44
:1001F500FC1202928E148F15AE12AF13AC10AD1116
:10020500120110E47BE87A03F9F812007E8E188F4C
:1002150019E4F516F517C3E5179519E51695185060
:100225001CD2A3AF15AE1412038AC2A3AF15AE1428
:0D02350012038A0517E51770DD051680D944
:010242002299
:100343007DF47C017FF47E011201DD7DE87C037F77
:06035300F47E010201DD51
:060243008B088A09890AFC
:10024900E4F50FE50FC3950E503EAB08AA09A90ABC
:10025900850F8275830012000375F0FAA4FFAEF0D2
:10026900AB0BAA0CA90D850F82758300120003251B
:10027900E0243DF582E43401F583E493FC740193B1
:08028900FD1201DD050F80BB31
:01029100224A
:10000300BB010CE58229F582E5833AF583E02250B2
:1000130006E92582F8E622BBFE06E92582F8E222FC
:0D002300E58229F582E5833AF583E4932216
:10003000EF8DF0A4A8F0CF8CF0A428CE8DF0A42EE4
:02004000FE229E
:1000420075F008758200EF2FFFEE33FECD33CDCC75
:1000520033CCC58233C5829BED9AEC99E5829840F8
:100062000CF582EE9BFEED9AFDEC99FC0FD5F0D6D5
:10007200E4CEFBE4CDFAE4CCF9A88222B800C1B9FF
:100082000059BA002DEC8BF084CFCECDFCE5F0CB3D
:10009200F97818EF2FFFEE33FEED33FDEC33FCEB76
:1000A20033FB10D703994004EB99FB0FD8E5E4F931
:1000B200FA227818EF2FFFEE33FEED33FDEC33FC1E
:1000C200C933C910D7059BE99A4007EC9BFCE99A12
:1000D200F90FD8E0E4C9FAE4CCFB2275F010EF2F57
:1000E200FFEE33FEED33FDCC33CCC833C810D70757
:1000F2009BEC9AE899400AED9BFDEC9AFCE899F892
:0E0102000FD5F0DAE4CDFBE4CCFAE4C8F92224
:10029200C2D5E830E70FB2D5E4C39BFBE49AFAE497
:1002A20099F9E498F8EC30E717B2D51202C81200B7
:1002B2007EE4C39BFBE49AFAE499F9E498F880039C
:1002C20012007E30D50DE4C39FFFE49EFEE49DFD47
:0402D200E49CFC228A
:10011000EC8EF0A4CCC5F0CCCDF8EFA4CEC5F02D7C
:10012000FDE43CFCE8A42EC8C5F03DFDE43CFCEF3A
:0D013000A4FFE5F028FEE43DFDE43CFC22C8
:00000001FF
