:030000000202DC1D
:0C02DC00787FE4F6D8FD75812002027DD9
:10027D001201147D58E4FF12004FE4FF1200031227
:04028D0002F380FEFA
:02017700A907D6
:10017900E4FBFAE9FF7E007C037DE81200C4D3EBBF
:100189009FEA9E5015E4FFFE0FBF00010EEF646F5A
:0A0199004E70F50BBB00010A80D97F
:0101A3002239
:10021000E4FDFCC3ED9FEC9E5015E4FBFA0BBB0024
:0F022000010AEB64714A70F50DBD00010C80E41A
:01022F0022AC
:0B02E800EF1FAC0670011E4C70F622E8
:04004F008F0E8D0F74
:100053007510041510E51060241202677FA01200CA
:10006300D68F11E51160ECAF0E1200D68F11E5119A
:1000730060E1AF0F1200D68F11E51160D61202A214
:100083007F047E00120210E510D3940040037F0129
:03009300227F00C9
:010096002247
:020003008F0E5E
:10000500750F04150FE50F60311202677FA012000E
:10001500D68F11E51160ECAF0E1200D68F11E511E8
:1000250060E11202677FA11200D68F11E51160D33E
:100035001201EC8F10D20012024F1202A2E50FD36B
:0900450094004003AF10227F007B
:01004E00228F
:100230007580FFC2B47F057E00120210D2B5D2B61F
:0E0240007F057E00120210E5805480FFC2B6DA
:01024E00228D
:1001A4008F0E120230EF640160F8C2B47F017E004A
:1001B400120210C2B5D2B6850E807F017E001202F3
:0401C40010C2B6228D
:1001C8008F0E120230EF640160F8D2B47F017E0016
:1001D800120210C2B5D2B6850E807F017E001202CF
:0401E80010C2B62269
:10029100EF60047F4080027F00EF24802DFF020188
:0102A100A4B8
:100114007F381201A47F381201A47F381201A47F12
:10012400011201A47F061201A47F017E00120210B5
:100134007F0F1201A4E4FDFF1202917F057E0002ED
:020144000210A7
:080146008B088A09890AAF0544
:10014E00E4F50DAD0C120291AB08AA09A90A850DB2
:10015E0082758300120097FF600E1201C8050D7F95
:08016E00057E0012021080E082
:010176002266
:0A02F3001201C87F057E0002021010
:0502FD007F010201A4D5
:0F02B3007F101201A47F201201C87F100201A446
:0D02C200EF60047F1480027F101201A4225F
:0D02CF00EF60047F1C80027F181201A42242
:10026700D2A100D2A00000000000C2A1000000003F
:0602770000C2A0000022FD
:1002A200C2A100D2A00000000000D2A10000000004
:0102B2002229
:1000D600E4FDEFA805088002C333D8FC30E704D25C
:1000E600A18002C2A100D2A00000000000C2A00DA3
:1000F600BD08DF0000D2A10000D2A000000030A1A0
:0D01060004E4FE80027E01C2A00000AF06EE
:0101130022C9
:1001EC00E4FFD2A1FE00C2A00000000000D2A000DB
:1001FC0000EF25E0FF30A1010F00000EBE08E6C2A3
:03020C00A000004F
:01020F0022CC
:10024F00200004C2A18002D2A1000000D2A00000B1
:08025F00000000C2A000002213
:10009700BB010CE58229F582E5833AF583E022501E
:1000A70006E92582F8E622BBFE06E92582F8E22268
:0D00B700E58229F582E5833AF583E4932282
:1000C400EF8DF0A4A8F0CF8CF0A428CE8DF0A42E50
:0200D400FE220A
:00000001FF
