:03000000020B9F51
:0C0B9F00787FE4F6D8FD75814D02099CBA
:100B500068656C6C6F20776F726C6421002575007E
:050B6000252E326600A5
:10099C0075252775243175237675224175260275C8
:1009AC002708120A127BFF7A0B7950E4F536FD12F8
:1009BC000A447535FF75360B75375D8526388527E6
:1009CC00397B007A0079281205897B007A00792816
:1009DC00E4F5367D01120A447535FF75360B753713
:1009EC006085253B85243A8523398522387B007A1E
:1009FC000079281205897B007A0079287536087DE4
:060A0C0001120A4480FE05
:020A7500A907CF
:100A7700E4FBFAE9FF7E007C037DE81204E5D3EB93
:100A87009FEA9E5015E4FFFE0FBF00010EEF646F53
:0A0A97004E70F50BBB00010A80D978
:010AA1002232
:100B1100E4FDFCC3ED9FEC9E5015E4FBFA0BBB001A
:0F0B2100010AEB64714A70F50DBD00010C80E410
:010B300022A2
:0B0BAB00EF1FAC0670011E4C70F6221C
:100B31007580FFC2B47F057E00120B11D2B5D2B60B
:0E0B41007F057E00120B11E5805480FFC2B6C6
:010B4F002283
:100AC9008F38120B31EF640160F8C2B47F017E00E8
:100AD900120B11C2B5D2B68538807F017E00120B88
:040AE90011C2B6225E
:100AED008F38120B31EF640160F8D2B47F017E00B4
:100AFD00120B11C2B5D2B68538807F017E00120B64
:040B0D0011C2B62239
:100B6500EF60047F4080027F00EF24802DFF020AA2
:010B7500C9B6
:100A12007F38120AC97F38120AC97F38120AC97F81
:100A220001120AC97F06120AC97F017E00120B1148
:100A32007F0F120AC9E4FDFF120B657F057E0002DB
:020A42000B1196
:080A44008B328A338934AF05BF
:100A4C00E4F537AD36120B65AB32AA33A9348537D2
:100A5C00827583001204A6FF600E120AED05377F23
:080A6C00057E00120B1180E071
:010A7400225F
:0A0BB600120AED7F057E00020B110C
:050BC0007F01020AC9DB
:0F0B76007F10120AC97F20120AED7F10020AC9F0
:0D0B8500EF60047F1480027F10120AC92265
:0D0B9200EF60047F1C80027F18120AC92248
:10052D00E5492435F8E60549227832300702783559
:10053D00E475F0011204F702048D2000EB7F2ED23A
:10054D00008018EF540F2490D43440D4FF30040BA6
:10055D00EF24BFB41A0050032461FFE54A60021571
:10056D004A054DE54D7002054C30070D7832E475A6
:10057D00F0011204F7EF0204D3020AA27403D207AA
:10058D008003E4C207F5498B328A338934E4F54A96
:10059D00F54CF54DE54A60077F2012056880F5752D
:1005AD004BFFC201C200C202C203C205C206C2088D
:1005BD00120536FF700D3007057F00120579AF4D1E
:1005CD00AE4C22B4255FC2D5C204120536FF24D02D
:1005DD00B40A00501A75F00A784A30D50508B6FFEE
:1005ED000106C6A426F620D5047002D20380D924B4
:1005FD00CFB41A00EF5004C2E5D204020866D2014E
:10060D0080C6D20080C0D20280BCD2D580BAD205BD
:10061D0080B47F201205682002077401B54A00409E
:10062D00F112052DFF1205680205A1D208D2068030
:10063D009512052DFB12052DFA12052DF94A4B7059
:10064D0006795D7A097BFF20022EE54A602A7E003D
:10065D008E827583001204A660060EEE654B70F057
:10066D00C2D5EBC0E0EAC0E0E9C0E0EE1208C6D0AA
:10067D00E0F9D0E0FAD0E0FB12048DFF60AAEBC0E8
:10068D00E0EAC0E0E9C0E0120568D0E02401F9D04D
:10069D00E03400FAD0E0FBE54B0460DCD54BD980AB
:1006AD0087D20280A21208A960F7E54B70010412EF
:1006BD000003A94B600DE54B600914F54B12095071
:1006CD00EF60F3EA30E702F404C3995077EAF425BA
:1006DD004B0430E701E404F54B800D1208A960C10D
:1006ED00EA054B254B120003EA7848F630E701E4A2
:1006FD00254B04D54B04200501141208C6E4C0E0B7
:10070D001209507848E6601320E70714F6120550D9
:10071D00802204F6D0E014C0E07F00120550E54BB6
:10072D006007120547154B800B300503120547D0A6
:10073D00E00205A1D0E00480C51208A960A0E54B38
:10074D00041200037848EAF6E54B20050260010427
:05075D0024041208C68F
:1007620074FF04C0E0120950120550E54B20050247
:100772006003120547D0E0B54BE87F4512055A7871
:1007820048E67F2B30E7047F2DF404C0E0120568B1
:10079200D0E075F00A84C0F0120551D0E012055184
:1007A2000205A1791080027908C206C2088008D227
:1007B200D5790A8004790AC2D5E54B047002F54B5B
:1007C200E4FAFDFEFF12052DFC7B08200113120541
:1007D2002DFD7B1030000A12052DFE12052DFF7B28
:1007E20020EC3382D592D55013C3E43000069FFF2C
:1007F200E49EFEE42001039DFDE49CFCE4CBF8C2F0
:1008020001EC700CCFCECDCCE824F8F870F3801751
:10081200C3EF33FFEE33FEED33FDEC33FCEB33FB82
:10082200994002FB0FD8E9EB300105F8D0E0C4484B
:10083200B201C0E00AEC4D4E4F78207B0070C2EA54
:10084200B54B0040BCC0E01208C8D0F0D0E0200197
:1008520004C4C0E0C4B201C0F0120551D0F0D5F01A
:10086200EB0205A1120507063E5307A558060F4CD9
:10087200060B4207A94F07B14407B14906244307B3
:10088200B75506E84607464506B247097D500613A6
:100892002D06172E063A2B061B2306382009662A38
:1008A20005D34800000632E54BB4FF03754B061230
:1008B200052DFC12052DFD12052DFE12052DFF78CA
:1008C20041020032790AA2D5200314300509B91079
:1008D200020404B9080104A2D52006025001042032
:1008E20002689202B54A005034C0E07F20300319FA
:1008F2007F30A20272067205500F12091FC202C295
:1009020006C205C2087F30800F300503E9C0E0123D
:100912000568300503D0E0F9D0E0B54ACC300517C0
:100922007F30B9100C1205687F583004077F788039
:1009320003B908031205683002057F2D0205687F9E
:10094200202008F87F2B2006F322920280CF7F001E
:10095200B4070050052441F8E6FF22286E756C6C3E
:100962002900D20112052D3001F8C201784A30D592
:100972000108F60205D32D5043495812052D2403D0
:10098200B405004001E490097893120559743A12B3
:0A0992000559D203754A040207A5B7
:10000300F920E72824F950037907E4F42402FB18C4
:10001300DBFDE624FB5014E9600DE4F618E604F674
:0F002300B40A08E4F6D9F57401F60A22C2D52210
:10003200ED33EC3392D5FA602AB4FF33EDC2E77B9D
:10004200FF60067A007957E4227A00796020D504AD
:100052007A00795B224E614E002B494E46002D49B3
:100062004E4600E47A08F608DAFC7B00740722E8C0
:10007200C0E0ECC0E0EDC0E0EEC0E0EFC0E0EA7549
:10008200F010A4CAABF075F04DA42BFBE435F0FCE4
:10009200EA2410FAEB34C5FBEC34D9FCEDC2E7FFDD
:1000A20075F056A4F42411C5F0F434C58FF0A42AD7
:1000B200E5F03BE43CF620E714120403D0E0FFD065
:1000C200E0FED0E0FDD0E0FC1203368014F404120E
:1000D2000403D0E0FFD0E0FED0E0FDD0E0FC12024D
:1000E2002DD0E0F8E6FAEDD2E7CD33EC332482FBF3
:1000F200E4C3CF33CFCE33CECD33CD33DBF37B0767
:1001020075F00A846004F6081B0AE5F0F6088FF021
:10011200740AA4FFACF08EF0740AA42CFEACF0506A
:10012200010C8DF0740AA42CFDE435F0F608DBDE38
:030132007407222D
:10013500020478E86480F8E933E83360110460F07C
:10014500ED33EC337009E8FCE9FDEAFEEBFF220430
:1001550060DED3EB9FEA9EE99DE8C2E78CF0C2F72B
:1001650095F0400CE8CCF8E9CDF9EACEFAEBCFFBF7
:1001750012044385D0F05804700320D5B3E8047009
:10018500075002B2D502048292D5EC0460F7E4CCA4
:10019500C0E0C398F8603B94186008400DD0E0FBC0
:1001A50002045AE4FBFAC9FC8028E830E406E4C9F5
:1001B500FBE4CAFCE830E305E4C9CACBFCE8540714
:1001C5006010F8C3E913F9EA13FAEB13FBEC13FC1F
:1001D500D8F130F52FC3E49CFCEF9BFFEE9AFEEDC2
:1001E50099FDD0E0FBEF4E4D4C701222DB0302046B
:1001F5007FEC2CFCEF33FFEE33FEED33FDED30E706
:10020500EB02045AEF2BFFEE3AFEED39FDD0E0FB91
:1002150050130BBB0003020482ED13FDEE13FEEF3A
:0802250013FFEC13FC02045A64
:10022D00EC4D6011E8497017ED33EC3304600DE4CB
:10023D00FCFFFEFD22E933E8330470F80204781266
:10024D00044358046009E4CC248150062850090267
:10025D00048228400302047FC0E0EB4A7044B98059
:10026D0006D0E0FB02046EEF4E701CBD8008EBFF64
:10027D00EAFEE9FD80EBE98DF0A4FEE5F002031640
:10028D00E9CDF9EAFEEBFFEF89F0A4FCE5F0CE89AC
:10029D00F0A42EFFE435F0CD89F0A42DFEE435F069
:1002AD008067EF4E7005BD80D780C3EF8BF0A4AC97
:1002BD00F0EE8BF0A42CFCE435F0F8EF8AF0A42CD2
:1002CD00E5F038FCE433CB8DF0A42CFCE5F03BF8E5
:1002DD00EE8AF0A42CFCE5F038F8E433CF89F0A4D5
:1002ED002CFCE5F038CF3400CE89F0A42FFFE5F0DB
:1002FD003EFEE433C98DF0A42EFEE5F039CD8AF033
:10030D00A42FFFE5F03EFEE43DFD33D0E0FB5007AA
:10031D000BBB000F020482EC2CFCEF33FFEE33FE1F
:06032D00ED33FD02045A4D
:10033300020482EC5D046005E8590470030204784A
:10034300120443580460F6EC4860F2EC7004FDFEBE
:10035300FF22C860DB2481C85009C398600250069D
:1003630002047F9850CAF582E9294B4A7005AB8293
:1003730002046E75F0007C1A7880C3EF9BEE9AED51
:1003830099400DC3EF9BFFEE9AFEED99FDE842F015
:10039300DC23ACF0D0E0FFD0E0FED0E0FDAB822068
:1003A300E7101BEB60BAEC2CFCEF33FFEE33FEEDF2
:1003B30033FD02045AE803F830E705C0F075F00096
:1003C300EF2FFFEE33FEED33FD40B830E7C280AAD6
:1003D3003F8000004120000042C80000447A000032
:1003E300461C400047C35000497424004B189680B4
:1003F3004CBEBC205A0E1BCA6753C21C749DC5AEAB
:10040300FB60065407601C2323120431EB5438604D
:100413000912041D12042C12022DECF8EDF9EEFA68
:10042300EFCB22EB12042C80F1543803241C9003ED
:10043300D3FE93FC0EEE93FD0EEE930ECE93FF22AE
:10044300E9D2E7C933E833F892D5EDD2E7CD33ECFF
:0704530033FC5002B2D52278
:10045A00EC30E7100FBF000C0EBE00080DBD000403
:10046A000BEB6014A2D5EB13FCED92E7FD2274FFAF
:10047A00FCFDFEFF22E480F8A2D574FF13FC7D8008
:03048A00E480EF1C
:10048D00BB010689828A83E0225002E722BBFE026D
:09049D00E32289828A83E49322A0
:1004A600BB010CE58229F582E5833AF583E022500B
:1004B60006E92582F8E622BBFE06E92582F8E22255
:0D04C600E58229F582E5833AF583E493226F
:1004D300BB010689828A83F0225002F722BBFE0108
:0204E300F32202
:1004E500EF8DF0A4A8F0CF8CF0A428CE8DF0A42E2B
:0204F500FE22E5
:1004F700FAE6FB0808E6F925F0F618E6CA3AF62206
:10050700D083D082F8E4937012740193700DA3A383
:1005170093F8740193F5828883E473740293686097
:06052700EFA3A3A380DF97
:100AA200EFB40A07740D120AAD740A309811A899AE
:100AB200B8130CC2983098FDA899C298B811F630B4
:070AC20099FDC299F599228C
:00000001FF
