:030000000201F00A
:0C01F000787FE4F6D8FD75811A02023712
:10033100120436E51A24FE600C146024240270F3C2
:1003410012040D80EE750BFF750C01750DBD90014A
:10035100EFE493F50E7BFF7A0179D61202E280D3A6
:10036100750BFF750C01750D7C9001BCE493F50EC6
:0B0371007BFF7A01799C1202E280B849
:0203C000A9078B
:1003C200E4FBFAE9FF7E007C037DE8120043D3EBF5
:1003D2009FEA9E5015E4FFFE0FBF00010EEF646F0F
:0A03E2004E70F50BBB00010A80D934
:0103EC0022EE
:1003ED00E4FDFCC3ED9FEC9E5015E4FBFA0BBB0046
:0F03FD00010AEB64714A70F50DBD00010C80E43C
:01040C0022CD
:0B000600EF1FAC0670011E4C70F622CC
:10015000000001060126014A015D018801B801EE97
:10016000020B024B029302BA0310037003DC041665
:10017000049705260575062006E007B808090A0851
:1001800008090A080A0B0C0A0B0C0C0D0C0B0A08C8
:100190000C0D0C0B0A080A05080A050802020202E7
:1001A000020202020202040202040101010102022F
:1001B00001010101020202020402020420050506F7
:1001C00005080705050605090805050C0A080706C0
:1001D0000B0B0A08090802010303030402010303CD
:1001E00003040201030303030302010303030419CD
:08027C008E108F118C128D13FE
:10028400AE12AF13AB07AA06E4F9F87F507EC3FDA4
:10029400FC12037C8E148F15AE12AF13AC10AD118B
:1002A400120123E47BE87A03F9F81200918E188F87
:1002B40019E4F516F517C3E5179519E516951850C1
:1002C4001CD2A3AF15AE14120006C2A3AF15AE1410
:0D02D4001200060517E51770DD051680D92C
:0102E10022FA
:10040D007DF47C017FF47E0112027C7DE87C037F0C
:06041D00F47E0102027CE6
:0602E2008B088A09890A5D
:1002E800E4F50FE50FC3950E503EAB08AA09A90A1D
:1002F800850F8275830012001675F0FAA4FFAEF020
:10030800AB0BAA0CA90D850F827583001200162568
:10031800E02450F582E43401F583E493FC740193FE
:08032800FD12027C050F80BBF1
:0103300022AA
:03044100011A009D
:0B043600D288D28AD2AFD2A8D2AA226C
:03000300020423D1
:10042300C0E0C0D0051AE51AB40403751A00D0D091
:03043300D0E032E4
:03001300020011D7
:0100110032BC
:1001FC00020331E493A3F8E493A34003F68001F2E5
:10020C0008DFF48029E493A3F85407240CC8C33303
:10021C00C4540F4420C8834004F456800146F6DFD2
:10022C00E4800B0102040810204080900441E47E1D
:10023C00019360BCA3FF543F30E509541FFEE493C7
:10024C00A360010ECF54C025E060A840B8E493A38E
:10025C00FAE493A3F8E493A3C8C582C8CAC583CAB9
:10026C00F0A3C8C582C8CAC583CADFE9DEE780BE71
:0104440000B7
:10001600BB010CE58229F582E5833AF583E022509F
:1000260006E92582F8E622BBFE06E92582F8E222E9
:0D003600E58229F582E5833AF583E4932203
:10004300EF8DF0A4A8F0CF8CF0A428CE8DF0A42ED1
:02005300FE228B
:1000550075F008758200EF2FFFEE33FECD33CDCC62
:1000650033CCC58233C5829BED9AEC99E5829840E5
:100075000CF582EE9BFEED9AFDEC99FC0FD5F0D6C2
:10008500E4CEFBE4CDFAE4CCF9A88222B800C1B9EC
:100095000059BA002DEC8BF084CFCECDFCE5F0CB2A
:1000A500F97818EF2FFFEE33FEED33FDEC33FCEB63
:1000B50033FB10D703994004EB99FB0FD8E5E4F91E
:1000C500FA227818EF2FFFEE33FEED33FDEC33FC0B
:1000D500C933C910D7059BE99A4007EC9BFCE99AFF
:1000E500F90FD8E0E4C9FAE4CCFB2275F010EF2F44
:1000F500FFEE33FEED33FDCC33CCC833C810D70744
:100105009BEC9AE899400AED9BFDEC9AFCE899F87E
:0E0115000FD5F0DAE4CDFBE4CCFAE4C8F92211
:10037C00C2D5E830E70FB2D5E4C39BFBE49AFAE4AC
:10038C0099F9E498F8EC30E717B2D51203B21200E1
:10039C0091E4C39BFBE49AFAE499F9E498F880039E
:1003AC0012009130D50DE4C39FFFE49EFEE49DFD49
:0403BC00E49CFC229F
:10012300EC8EF0A4CCC5F0CCCDF8EFA4CEC5F02D69
:10013300FDE43CFCE8A42EC8C5F03DFDE43CFCEF27
:0D014300A4FFE5F028FEE43DFDE43CFC22B5
:00000001FF
