:03000000020EF8F5
:0C0EF800787FE4F6D8FD758148020DCC2F
:050F0400252E316600FE
:100E7300E4FDFCC3ED9FEC9E5015E4FBFA0BBB00B5
:0F0E8300010AEB64734A70F50DBD00010C80E4A9
:010E9200223D
:100DCC00120EE4120D937530FF75310F7532048FCE
:100DDC00368E358D348C337B007A0079231206A243
:100DEC00E4F5227B007A007923120AB50522E5226C
:070DFC00C3943240EE80C9F0
:100E9300C2B77F677E00EF1F70011EEF4E70F7D25F
:0E0EA300B77E007F04EF1F70011EEF4E70F748
:010EB100221E
:100E4F00C2B70FBF0000D2B70FBF00000FBF000027
:100E5F00A2B792007E007F08EF1F70011EEF4E7049
:030E6F00F7A200E7
:010E7200225D
:100EB200E4FD7C01120E4FE433FFC433333354801C
:0C0EC200FEEDC3134EFD0CBC09EAAF05A9
:010ECE002201
:100D4B007E01EF139200EFC313FF30001BC2B70BF2
:100D5B00BB00000BBB0000D2B77A007B08EB1B700B
:100D6B00011AEB4A70F7801BC2B77A007B08EB1BAA
:100D7B0070011AEB4A70F7D2B70BBB00010A0BBB21
:070D8B0000010A0EBE09BBC6
:010D9200223E
:100EE400120E937F017E00120E737FCC120D4B7F86
:040EF40044020D4B5C
:100D9300120E937F017E00120E737FCC120D4B7FD8
:100DA300BE120D4B120EB2AB07120EB2EF30E303BD
:100DB3004307F0EFFEEBFFFDAC06EC12010EE4FB84
:080DC300FA7980783D1200036B
:010DCB002205
:100E2A00252E306600252E316600252E32660025D5
:100E3A002E3366003F065B4F666D7D077F6F777CBA
:050E4A00395E79710022
:080BA6008F1C8E1B8D1A8C19A7
:100BAE00E4FFFEFDFCAB1CAA1BA91AA819C3120573
:100BBE00FF7017C2A2C2A3C2A4900E3E93F5807F0F
:100BCE00017E00120E73E4F58022E4F51DAF1CAE1B
:100BDE001BAD1AAC19EC4D4E4F7003020C86E51D81
:100BEE00B40800504D900BFAF8282873020C12022C
:100BFE000C16020C1E020C22020C2A020C2E020CE7
:100C0E0036020C3AC2A28002D2A2C2A3C2A4802291
:100C1E00C2A28002D2A2D2A3C2A48016C2A2800215
:100C2E00D2A2C2A3D2A4800AC2A28002D2A2D2A30E
:100C3E00D2A4E47B0AFAF9F8AF1CAE1BAD1AAC19BC
:100C4E0012055F743E2BF582740E3AF583E493F52C
:100C5E00807F017E00120E73E4F580AF1CAE1BADDB
:100C6E001AAC197B0AFAF9F812055F8F1C8E1B8DD0
:080C7E001A8C19051D020BDBA5
:010C8600224B
:060AB5008B2D8A2E892F13
:100ABB00120ECF8F31E4F530E530C3953140030290
:100ACB000BA5E530B40800504D900ADBF8282873CD
:100ADB00020AF3020AF7020AFF020B03020B0B02D4
:100AEB000B0F020B17020B1BC2A28002D2A2C2A3D6
:100AFB00C2A48022C2A28002D2A2D2A3C2A4801618
:100B0B00C2A28002D2A2C2A3D2A4800AC2A2800235
:100B1B00D2A2D2A3D2A4C3E5319530FFE49400CF87
:100B2B0024FFCF34FFAB2DAA2EA92F8F82F5831272
:100B3B0004E424E0602E24F3602514702C1531C3DB
:100B4B00E5319530FFE49400CF24FFCF34FF8F8243
:100B5B00F5831204E4900E0E934480F580802C757F
:100B6B0080408027E4F5808022C3E5319530FFE497
:100B7B009400CF24FFCF34FFAB2DAA2EA92F8F8249
:100B8B00F5831204E4900E0E93F5807F017E001224
:0A0B9B000E73E4F5800530020AC372
:010BA500222D
:080CEC008F0B8E0A8D098C08A4
:100CF400E50C14601514601D1460252403703F7501
:100D040030FF75310E75322A801F7530FF75310E34
:100D140075322F80147530FF75310E7532348009A9
:100D24007530FF75310E753239850B36850A358578
:100D340009348508337B007A00790D1206A27B0002
:070D44007A00790D020AB5E7
:100C8700EDB40800504D900C94F8282873020CAC72
:100C9700020CB0020CB8020CBC020CC4020CC80255
:100CA7000CD0020CD4C2A28002D2A2C2A3C2A480DA
:100CB70022C2A28002D2A2D2A3C2A48016C2A2805C
:100CC70002D2A2C2A3D2A4800AC2A28002D2A2D216
:100CD700A3D2A4EF900E3E93F5807F017E00120E03
:050CE70073E4F580221A
:10000300EC4D6011E8497017ED33EC3304600DE4F7
:10001300FCFFFEFD22E933E8330470F802017C1291
:10002300014758046009E4CC248150062850090292
:100033000186284003020183C0E0EB4A7044B98083
:1000430006D0E0FB020172EF4E701CBD8008EBFF8F
:10005300EAFEE9FD80EBE98DF0A4FEE5F00200EC99
:10006300E9CDF9EAFEEBFFEF89F0A4FCE5F0CE89D8
:10007300F0A42EFFE435F0CD89F0A42DFEE435F095
:100083008067EF4E7005BD80D780C3EF8BF0A4ACC3
:10009300F0EE8BF0A42CFCE435F0F8EF8AF0A42CFE
:1000A300E5F038FCE433CB8DF0A42CFCE5F03BF811
:1000B300EE8AF0A42CFCE5F038F8E433CF89F0A401
:1000C3002CFCE5F038CF3400CE89F0A42FFFE5F007
:1000D3003EFEE433C98DF0A42EFEE5F039CD8AF05F
:1000E300A42FFFE5F03EFEE43DFD33D0E0FB5007D7
:1000F3000BBB000F020186EC2CFCEF33FFEE33FE4B
:06010300ED33FD02015E78
:1001090075F020800E75F010800575F0087D007E71
:10011900007F003392D530D5031205F1EC3340103E
:10012900EF33FFEE33FEED33FDEC33FCD5F0ED227A
:0E013900E5F0247EA2D513CC92E7CDCEFF22B6
:10064600E5442430F8E6054422782D300702783058
:10065600E475F0011206100204CB2000EB7F2ED2C7
:10066600008018EF540F2490D43440D4FF30040B8C
:10067600EF24BFB41A0050032461FFE5456002155C
:10068600450548E5487002054730070D782DE475A5
:10069600F001120610EF020511020E037403D207D1
:1006A6008003E4C207F5448B2D8A2E892FE4F54595
:1006B600F547F548E54560077F2012068180F57508
:1006C60046FFC201C200C202C203C205C206C20878
:1006D60012064FFF700D3007057F00120692AF48D5
:1006E600AE4722B4255FC2D5C20412064FFF24D0FE
:1006F600B40A00501A75F00A784530D50508B6FFD9
:100706000106C6A426F620D5047002D20380D92499
:10071600CFB41A00EF5004C2E5D20402097FD20119
:1007260080C6D20080C0D20280BCD2D580BAD205A3
:1007360080B47F201206812002077401B54500406F
:10074600F1120646FF1206810206BAD208D20680C8
:1007560095120646FB120646FA120646F94A4B70F1
:100766000679767A0A7BFF20022EE545602A7E000E
:100776008E827583001204E460060EEE654670F004
:10078600C2D5EBC0E0EAC0E0E9C0E0EE1209DFD076
:10079600E0F9D0E0FAD0E0FB1204CBFF60AAEBC090
:1007A600E0EAC0E0E9C0E0120681D0E02401F9D019
:1007B600E03400FAD0E0FBE5460460DCD546D9809B
:1007C60087D20280A21209C260F7E54670010412C0
:1007D6000191A946600DE546600914F546120A69BD
:1007E600EF60F3EA30E702F404C3995077EAF425A0
:1007F600460430E701E404F546800D1209C260C1E3
:10080600EA05462546120191EA7843F630E701E407
:10081600254604D54604200501141209DFE4C0E08C
:10082600120A697843E6601320E70714F612066990
:10083600802204F6D0E014C0E07F00120669E54687
:1008460060071206601546800B300503120660D05D
:10085600E00206BAD0E00480C51209C260A0E546EF
:10086600041201917843EAF6E54620050260010488
:0508760024041209DF5B
:10087B0074FF04C0E0120A69120669E546200502FE
:10088B006003120660D0E0B546E87F451206737828
:10089B0043E67F2B30E7047F2DF404C0E012068182
:1008AB00D0E075F00A84C0F012066AD0E012066A36
:1008BB000206BA791080027908C206C2088008D2F3
:1008CB00D5790A8004790AC2D5E546047002F5464B
:1008DB00E4FAFDFEFF120646FC7B0820011312060C
:1008EB0046FD7B1030000A120646FE120646FF7BC1
:1008FB0020EC3382D592D55013C3E43000069FFF12
:10090B00E49EFEE42001039DFDE49CFCE4CBF8C2D5
:10091B0001EC700CCFCECDCCE824F8F870F3801737
:10092B00C3EF33FFEE33FEED33FDEC33FCEB33FB68
:10093B00994002FB0FD8E9EB300105F8D0E0C44831
:10094B00B201C0E00AEC4D4E4F78207B0070C2EA3A
:10095B00B5460040BCC0E01209E1D0F0D0E0200168
:10096B0004C4C0E0C4B201C0F012066AD0F0D5F0E6
:10097B00EB0206BA12062007575308BE5807284C3D
:10098B0007244208C24F08CA4408CA49073D430816
:10099B00D055080146085F4507CB470A9650072CF0
:1009AB002D07302E07532B0734230751200A7F2A9C
:1009BB0006EC480000074BE546B4FF0375460612EC
:1009CB000646FC120646FD120646FE120646FF7848
:1009DB003C0201C0790AA2D5200314300509B910D5
:1009EB00020404B9080104A2D52006025001042018
:1009FB0002689202B545005034C0E07F20300319E5
:100A0B007F30A20272067205500F120A38C202C260
:100A1B0006C205C2087F30800F300503E9C0E01223
:100A2B000681300503D0E0F9D0E0B545CC30051791
:100A3B007F30B9100C1206817F583004077F788005
:100A4B0003B908031206813002057F2D0206817F50
:100A5B00202008F87F2B2006F322920280CF7F0004
:100A6B00B407005005243CF8E6FF22286E756C6C29
:100A7B002900D2011206463001F8C201784530D563
:100A8B000108F60206EC2D50434958120646240382
:100A9B00B405004001E4900A9193120672743A1265
:0A0AAB000672D2037545040208BE6E
:10014700E9D2E7C933E833F892D5EDD2E7CD33ECFE
:0701570033FC5002B2D52277
:10015E00EC30E7100FBF000C0EBE00080DBD000402
:10016E000BEB6014A2D5EB13FCED92E7FD2274FFAE
:10017E00FCFDFEFF22E480F8A2D574FF13FC7D8007
:03018E00E480EF1B
:10019100F920E72824F950037907E4F42402FB1835
:1001A100DBFDE624FB5014E9600DE4F618E604F6E5
:0F01B100B40A08E4F6D9F57401F60A22C2D52281
:1001C000ED33EC3392D5FA602AB4FF33EDC2E77B0E
:1001D000FF60067A0179E5E4227A0179EE20D50400
:1001E0007A0179E9224E614E002B494E46002D4995
:1001F0004E4600E47A08F608DAFC7B00740722E831
:10020000C0E0ECC0E0EDC0E0EEC0E0EFC0E0EA75B9
:10021000F010A4CAABF075F04DA42BFBE435F0FC54
:10022000EA2410FAEB34C5FBEC34D9FCEDC2E7FF4D
:1002300075F056A4F42411C5F0F434C58FF0A42A47
:10024000E5F03BE43CF620E71412048BD0E0FFD04D
:10025000E0FED0E0FDD0E0FC1203BE8014F40412F6
:10026000048BD0E0FFD0E0FED0E0FDD0E0FC120037
:1002700003D0E0F8E6FAEDD2E7CD33EC332482FB8D
:10028000E4C3CF33CFCE33CECD33CD33DBF37B07D7
:1002900075F00A846004F6081B0AE5F0F6088FF092
:1002A000740AA4FFACF08EF0740AA42CFEACF050DB
:1002B000010C8DF0740AA42CFDE435F0F608DBDEA9
:0302C0007407229E
:1002C30002017CE86480F8E933E83360110460F0EC
:1002D300ED33EC337009E8FCE9FDEAFEEBFF2204A1
:1002E30060DED3EB9FEA9EE99DE8C2E78CF0C2F79C
:1002F30095F0400CE8CCF8E9CDF9EACEFAEBCFFB68
:1003030012014785D0F05804700320D5B3E8047078
:10031300075002B2D502018692D5EC0460F7E4CC13
:10032300C0E0C398F8603B94186008400DD0E0FB30
:1003330002015EE4FBFAC9FC8028E830E406E4C964
:10034300FBE4CAFCE830E305E4C9CACBFCE8540784
:100353006010F8C3E913F9EA13FAEB13FBEC13FC8F
:10036300D8F130F52FC3E49CFCEF9BFFEE9AFEED32
:1003730099FDD0E0FBEF4E4D4C701222DB030201DE
:1003830083EC2CFCEF33FFEE33FEED33FDED30E772
:10039300EB02015EEF2BFFEE3AFEED39FDD0E0FB01
:1003A30050130BBB0003020186ED13FDEE13FEEFAA
:0803B30013FFEC13FC02015ED4
:1003BB00020186EC5D046005E85904700302017CC0
:1003CB00120147580460F6EC4860F2EC7004FDFE35
:1003DB00FF22C860DB2481C85009C3986002500615
:1003EB000201839850CAF582E9294B4A7005AB820A
:1003FB0002017275F0007C1A7880C3EF9BEE9AEDC8
:10040B0099400DC3EF9BFFEE9AFEED99FDE842F08C
:10041B00DC23ACF0D0E0FFD0E0FED0E0FDAB8220DF
:10042B00E7101BEB60BAEC2CFCEF33FFEE33FEED69
:10043B0033FD02015EE803F830E705C0F075F0000C
:10044B00EF2FFFEE33FEED33FD40B830E7C280AA4D
:10045B003F8000004120000042C80000447A0000A9
:10046B00461C400047C35000497424004B1896802B
:10047B004CBEBC205A0E1BCA6753C21C749DC5AE22
:10048B00FB60065407601C23231204B9EB5438603D
:10049B00091204A51204B4120003ECF8EDF9EEFAFC
:1004AB00EFCB22EB1204B480F1543803241C9004DC
:1004BB005BFE93FC0EEE93FD0EEE930ECE93FF229E
:1004CB00BB010689828A83E0225002E722BBFE022F
:0904DB00E32289828A83E4932262
:1004E400BB010CE58229F582E5833AF583E02250CD
:1004F40006E92582F8E622BBFE06E92582F8E22217
:0D050400E58229F582E5833AF583E4932230
:10051100BB010689828A83F0225002F722BBFE01C9
:02052100F322C3
:1005230075F008758200EF2FFFEE33FECD33CDCC8F
:1005330033CCC58233C5829BED9AEC99E582984012
:100543000CF582EE9BFEED9AFDEC99FC0FD5F0D6EF
:10055300E4CEFBE4CDFAE4CCF9A88222B800C1B919
:100563000059BA002DEC8BF084CFCECDFCE5F0CB57
:10057300F97818EF2FFFEE33FEED33FDEC33FCEB90
:1005830033FB10D703994004EB99FB0FD8E5E4F94B
:10059300FA227818EF2FFFEE33FEED33FDEC33FC38
:1005A300C933C910D7059BE99A4007EC9BFCE99A2C
:1005B300F90FD8E0E4C9FAE4CCFB2275F010EF2F71
:1005C300FFEE33FEED33FDCC33CCC833C810D70771
:1005D3009BEC9AE899400AED9BFDEC9AFCE899F8AC
:0E05E3000FD5F0DAE4CDFBE4CCFAE4C8F9223F
:0E05F100C3E49FFFE49EFEE49DFDE49CFC221B
:1005FF00EB9FF5F0EA9E42F0E99D42F0E89C45F052
:01060F0022C8
:10061000FAE6FB0808E6F925F0F618E6CA3AF622EB
:10062000D083D082F8E4937012740193700DA3A369
:1006300093F8740193F5828883E47374029368607D
:06064000EFA3A3A380DF7D
:100E0300EFB40A07740D120E0E740A309811A899E4
:100E1300B8130CC2983098FDA899C298B811F6304F
:070E230099FDC299F5992227
:100ECF00E4FFFE1204CB600C0FEF70010E09E97006
:050EDF00F20A80EF2281
:00000001FF
