:03000000020F16D6
:0C0F1600787FE4F6D8FD75817E020F5D47
:10118C00CEC2B6C8A3BA252E306600CAAAB6C8A36A
:06119C00BA252E306600AA
:1010FC00E4FDFCC3ED9FEC9E5015E4FBFA0BBB002A
:0F110C00010AEB64734A70F50DBD00010C80E41D
:01111B0022B1
:100D3B00E4F523F52BF52AF529F528F52FF52EF5F6
:100D4B002DF52C12106C8033E4F523F55C755D00EA
:100D5B00755E30F55FFB7A007924120E828F237556
:100D6B005C00755D00755E30755F017B007A007904
:100D7B0026120E82EF2523F523600512120380C87D
:100D8B0075600075610075622C7B007A007928AD67
:100D9B0027AC26AF25AE24120B87755CFF755D1152
:100DAB00755E8C852B62852A6185296085285F7B22
:100DBB00007A007931120774E4FF74312FF8E6FEE4
:100DCB0074452FF8A6060FBF06F075220674312F57
:100DDB00F8E6601D74452522F876A3052274312FA1
:100DEB00F8E62480FE74452522F8A6060F0522801E
:100DFB00DC74452522F8E4F6FB7A007945F55DFDB8
:100E0B00120FA2755CFF755D11755E97852F62855C
:100E1B002E61852D60852C5F7B007A00793112075E
:100E2B0074E4FF74312FF8E6FE74452FF8A6060F15
:100E3B00BF06F075220674312FF8E6601D74452548
:100E4B0022F876A3052274312FF8E62480FE744530
:100E5B002522F8A6060F052280DC74452522F8E42E
:100E6B00F6FB7A007945F55D7D01120FA27F207E9E
:070E7B00031210FC020D53ED
:10115700D2A1C2A000D2A000C2A100C2A00000007C
:0B1167000000D2A000D2A100C2A02214
:10120300D2A1C2A0E4FFD2A0C2A00FBF09F802116D
:011213005783
:1010DB00E4FEEF25E0FF92A1D2A00000000000C2C9
:1010EB00A00EBE08EDD2A1D2A0A2A1E433FFC2A0F4
:0110FB0022D2
:100FE700E4FED2A1FDD2A00000000000EE25E0FE45
:100FF700A2A1E4334EFEC2A00DBD08E9EF24FF9283
:0E100700A1D2A00000000000C2A0D2A1AF063E
:0110150022B8
:08121F001212037F1E1210DB06
:0112270022A4
:101092001211577F071210DBAC07E4FF120FE7EFC4
:1010A20012057E7F01120FE7AB0BAA0CA90DEF12FE
:0410B200057EAF0404
:0110B6002217
:1011A2001211577F061210DBAD07120538FF12101D
:0411B200DBEF2DFF43
:0111B6002216
:060E82008B598A5A895BBE
:100E8800E4F560121157E55F14600704700B7F03E7
:100E980080027F051210DB8F60E560D39400400369
:100EA800AF6022900000AF82AE83E4FCFD7BFF7A46
:100EB800FFF9F8D31205BD400630A103A380E7AEC1
:100EC80083AF82E4FCFD7BFF7AFFF9F8C31205BD0E
:100ED80070050560AF6022E4FF120FE78F61E4FF41
:100EE800120FE7AC077F01120FE7AB5CAA5DA95EA2
:100EF800EF12057EE561FEAD047C00E42DFFEC3EBB
:0D0F0800AB59AA5AA95B8FF0120590AF609B
:010F150022B9
:0E0B87008C5B8D5C8B5D8A5E895F8F828E83B6
:100B9500E4F566F5657564207563C2756A0A75695D
:100BA500D775682375673CF56EF56D756C80756B4B
:100BB500C07572547571E3757025756F3D7576A2B4
:100BC5007575E775743B7573B6757A0A7579D7755A
:100BD500782375773C757EAC757DC5757CA7757B6F
:100BE50038AD07AC06120273AB6AAA69A968A86793
:100BF5001200FBAB66AA65A964A86312000AAB5D87
:100C0500AA5EA95F1205F3AC5BAD5CE4120273AB9F
:100C150076AA75A974A8731200FBC004C005C006A6
:100C2500C007AC5BAD5CE4120273D003D002D00107
:100C3500D0001200FBC004C005C006C007AC5BAD08
:100C45005CE4120273AB72AA71A970A86F1200FB63
:100C5500AB6EAA6DA96CA86B12000AD003D002D0A6
:100C650001D00012000AAB60AA61A9621205F3ABBC
:100C750060AA61A962C003C002C0011205D3C00405
:100C8500C005C006C007AC5BAD5CE4120273AB7E69
:100C9500AA7DA97CA87B1200FBAB7AAA79A978A8C2
:100CA5007712000AC004C005C006C007AB5DAA5E86
:100CB500A95F1205D3E4FBFA79C878C112000AA826
:100CC50004A905AA06AB07D007D006D005D00412A3
:100CD50000FBA804A905AA06AB07D007D006D005D6
:100CE500D00412000AD001D002D0031205F3AB6084
:100CF500AA61A9621205D3E4FBFA79C87842120207
:100D050001500DAB60AA61A96212060D42C8000030
:100D1500AB60AA61A9621205D37B0A7AD7792378D9
:100D25003C120201600F400DAB60AA61A962120678
:050D35000D3C23D70A6C
:010D3A002296
:0612280001140001130097
:1011B700C2B5D2B6D2B400000000E580339200C2B7
:0311C700B4A200CF
:0111CA002202
:10113B001211B740FBC2B5C2B6C2B400008F80001B
:0C114B00000000D2B400000000C2B4227A
:101172001211B740FBD2B5C2B6C2B48F80000000D4
:0A11820000D2B400000000C2B42245
:10106C00D2B77F3012113B7F057E001210FC7F0C33
:10107C0012113B7F057E001210FC7F0112113B7F89
:06108C00057E000210FCCD
:0B1016000514531403F513AD13AF14C1
:101021008F148D13EF70047E808013BF01047E90B6
:10103100800CBF02047E888005BF03027E98EE2DDE
:04104100FF02113B5E
:080FA2008B598A5A895BAF05E7
:100FAA00AD5D121021E4FCAB59AA5AA95B8C82757B
:100FBA008300120551FF60241211720CAB59AA5A10
:100FCA00A95B8C82758300120551FF1211720C0500
:0C0FDA0013E513540770D012101680CBE2
:010FE60022E8
:1010B700AF05AD12121021120538FF121172900000
:1010C70001120551FF1211720513E513540770033E
:0410D70012101622BB
:1011F1007F0112113B7F057E001210FCE4FDFF020E
:021201001021BA
:0B1214001210217FA112117202117252
:0211CB00AC076F
:1011CD00E4FBAF04C374079BFD1212140BBB08F2B2
:0111DD0022EF
:10111C00E513700EE514D3940040091514751307EC
:0F112C008002151312101D7FA112117202117291
:1011DE00AE07BE01057F0C12113BEE70057F0812A3
:0311EE00113B2290
:100003000202E1E86480F8E933E83360110460F048
:10001300ED33EC337009E8FCE9FDEAFEEBFF220463
:1000230060DED3EB9FEA9EE99DE8C2E78CF0C2F75E
:1000330095F0400CE8CCF8E9CDF9EACEFAEBCFFB2A
:100043001202AC85D0F05804700320D5B3E80470D5
:10005300075002B2D50202EB92D5EC0460F7E4CC70
:10006300C0E0C398F8603B94186008400DD0E0FBF3
:100073000202C3E4FBFAC9FC8028E830E406E4C9C1
:10008300FBE4CAFCE830E305E4C9CACBFCE8540747
:100093006010F8C3E913F9EA13FAEB13FBEC13FC52
:1000A300D8F130F52FC3E49CFCEF9BFFEE9AFEEDF5
:1000B30099FDD0E0FBEF4E4D4C701222DB030202A0
:1000C300E8EC2CFCEF33FFEE33FEED33FDED30E7D0
:1000D300EB0202C3EF2BFFEE3AFEED39FDD0E0FB5E
:1000E30050130BBB00030202EBED13FDEE13FEEF07
:0800F30013FFEC13FC0202C331
:1000FB00EC4D6011E8497017ED33EC3304600DE4FF
:10010B00FCFFFEFD22E933E8330470F80202E11232
:10011B0002AC58046009E4CC248150062850090233
:10012B0002EB2840030202E8C0E0EB4A7044B980BE
:10013B0006D0E0FB0202D7EF4E701CBD8008EBFF30
:10014B00EAFEE9FD80EBE98DF0A4FEE5F00201E4A7
:10015B00E9CDF9EAFEEBFFEF89F0A4FCE5F0CE89DF
:10016B00F0A42EFFE435F0CD89F0A42DFEE435F09C
:10017B008067EF4E7005BD80D780C3EF8BF0A4ACCA
:10018B00F0EE8BF0A42CFCE435F0F8EF8AF0A42C05
:10019B00E5F038FCE433CB8DF0A42CFCE5F03BF818
:1001AB00EE8AF0A42CFCE5F038F8E433CF89F0A408
:1001BB002CFCE5F038CF3400CE89F0A42FFFE5F00E
:1001CB003EFEE433C98DF0A42EFEE5F039CD8AF066
:1001DB00A42FFFE5F03EFEE43DFD33D0E0FB5007DE
:1001EB000BBB000F0202EBEC2CFCEF33FFEE33FEEC
:0601FB00ED33FD0202C31A
:1002010074F8CC6480CCC86480C8F582046043C3B0
:10021100EB9FF5F0EA9E42F0E99D42F0E89C45F043
:1002210060305018E5825FFFE582F42B5582FB5068
:10023100210ABA001D09B90019088016E5825BFB85
:10024100E582F42F5582FF50090EBE00050DBD0059
:10025100010CC3EB9FF5F0EA9E42F0E99D42F0E804
:0D0261009C45F06007CC4820E701B3EC227B
:10026E0075F020800E75F010800575F0087D007E0B
:10027E00007F003392D530D5031205AFEC3340101A
:10028E00EF33FFEE33FEED33FDEC33FCD5F0ED2214
:0E029E00E5F0247EA2D513CC92E7CDCEFF2250
:10071800E570245CF8E60570227859300702785CA9
:10072800E475F0011206270205382000EB7F2ED26F
:10073800008018EF540F2490D43440D4FF30040BB9
:10074800EF24BFB41A0050032461FFE5716002155D
:10075800710574E5747002057330070D7859E475F6
:10076800F001120627EF02057E0210457403D20736
:100778008003E4C207F5708B598A5A895BE4F571E6
:10078800F573F574E57160077F2012075380F575DE
:1007980072FFC201C200C202C203C205C206C20879
:1007A800120721FF700D3007057F00120764AF7430
:1007B800AE7322B4255FC2D5C204120721FF24D02C
:1007C800B40A00501A75F00A787130D50508B6FFDA
:1007D8000106C6A426F620D5047002D20380D924C7
:1007E800CFB41A00EF5004C2E5D204020A51D20174
:1007F80080C6D20080C0D20280BCD2D580BAD205D1
:1008080080B47F201207532002077401B57100409D
:10081800F1120718FF12075302078CD208D206807C
:1008280095120718FB120718FA120718F94A4B70A5
:100838000679487A0B7BFF20022EE571602A7E003C
:100848008E8275830012055160060EEE657270F097
:10085800C2D5EBC0E0EAC0E0E9C0E0EE120AB1D0D0
:10086800E0F9D0E0FAD0E0FB120538FF60AAEBC04F
:10087800E0EAC0E0E9C0E0120753D0E02401F9D073
:10088800E03400FAD0E0FBE5720460DCD572D98070
:1008980087D20280A2120A9460F7E57270010412EE
:1008A80002F6A972600DE572600914F572120B3B2D
:1008B800EF60F3EA30E702F404C3995077EAF425CD
:1008C800720430E701E404F572800D120A9460C1E5
:1008D800EA057225721202F6EA786FF630E701E44B
:1008E800257204D5720420050114120AB1E4C0E08F
:1008F800120B3B786FE6601320E70714F612073BEC
:10090800802204F6D0E014C0E07F0012073BE572B5
:1009180060071207321572800B300503120732D0B8
:10092800E002078CD0E00480C5120A9460A0E5724A
:10093800041202F6786FEAF6E572200502600104F7
:050948002404120AB1B5
:10094D0074FF04C0E0120B3B12073BE57220050259
:10095D006003120732D0E0B572E87F451207457883
:10096D006FE67F2B30E7047F2DF404C0E0120753B0
:10097D00D0E075F00A84C0F012073CD0E012073CBD
:10098D0002078C791080027908C206C2088008D24D
:10099D00D5790A8004790AC2D5E572047002F57220
:1009AD00E4FAFDFEFF120718FC7B08200113120765
:1009BD0018FD7B1030000A120718FE120718FF7B76
:1009CD0020EC3382D592D55013C3E43000069FFF3F
:1009DD00E49EFEE42001039DFDE49CFCE4CBF8C203
:1009ED0001EC700CCFCECDCCE824F8F870F3801765
:1009FD00C3EF33FFEE33FEED33FDEC33FCEB33FB96
:100A0D00994002FB0FD8E9EB300105F8D0E0C4485E
:100A1D00B201C0E00AEC4D4E4F78207B0070C2EA67
:100A2D00B5720040BCC0E0120AB3D0F0D0E0200196
:100A3D0004C4C0E0C4B201C0F012073CD0F0D5F040
:100A4D00EB02078C12063708295309905807FA4C08
:100A5D0007F64209944F099C44099C49080F430924
:100A6D00A25508D346093145089D470B685007FE2E
:100A7D002D08022E08252B0806230823200B512AAA
:100A8D0007BE480000081DE572B4FF03757206121B
:100A9D000718FC120718FD120718FE120718FF7829
:100AAD0068020325790AA2D5200314300509B9106F
:100ABD00020404B9080104A2D52006025001042045
:100ACD0002689202B571005034C0E07F20300319E6
:100ADD007F30A20272067205500F120B0AC202C2BB
:100AED0006C205C2087F30800F300503E9C0E01251
:100AFD000753300503D0E0F9D0E0B571CC300517C0
:100B0D007F30B9100C1207537F583004077F78805F
:100B1D0003B908031207533002057F2D0207537FD7
:100B2D00202008F87F2B2006F322920280CF7F0031
:100B3D00B4070050052468F8E6FF22286E756C6C2A
:100B4D002900D2011207183001F8C201787130D591
:100B5D000108F60207BE2D50434958120718240309
:100B6D00B405004001E4900B6393120744743A12EC
:0A0B7D000744D203757104020990C9
:1002AC00E9D2E7C933E833F892D5EDD2E7CD33EC98
:0702BC0033FC5002B2D52211
:1002C300EC30E7100FBF000C0EBE00080DBD00049C
:1002D3000BEB6014A2D5EB13FCED92E7FD2274FF48
:1002E300FCFDFEFF22E480F8A2D574FF13FC7D80A1
:0302F300E480EFB5
:1002F600F920E72824F950037907E4F42402FB18CF
:10030600DBFDE624FB5014E9600DE4F618E604F67E
:0F031600B40A08E4F6D9F57401F60A22C2D5221A
:10032500ED33EC3392D5FA602AB4FF33EDC2E77BA7
:10033500FF60067A03794AE4227A03795320D504CB
:100345007A03794E224E614E002B494E46002D49C7
:100355004E4600E47A08F608DAFC7B00740722E8CA
:10036500C0E0ECC0E0EDC0E0EEC0E0EFC0E0EA7553
:10037500F010A4CAABF075F04DA42BFBE435F0FCEE
:10038500EA2410FAEB34C5FBEC34D9FCEDC2E7FFE7
:1003950075F056A4F42411C5F0F434C58FF0A42AE1
:1003A500E5F03BE43CF620E7141204F8D0E0FFD07A
:1003B500E0FED0E0FDD0E0FC12042B8014F4041222
:1003C50004F8D0E0FFD0E0FED0E0FDD0E0FC120064
:1003D500FBD0E0F8E6FAEDD2E7CD33EC332482FB2F
:1003E500E4C3CF33CFCE33CECD33CD33DBF37B0771
:1003F50075F00A846004F6081B0AE5F0F6088FF02C
:10040500740AA4FFACF08EF0740AA42CFEACF05074
:10041500010C8DF0740AA42CFDE435F0F608DBDE42
:0304250074072237
:100428000202EBEC5D046005E8590470030202E186
:100438001202AC580460F6EC4860F2EC7004FDFE61
:10044800FF22C860DB2481C85009C39860025006A7
:100458000202E89850CAF582E9294B4A7005AB8236
:100468000202D775F0007C1A7880C3EF9BEE9AEDF4
:1004780099400DC3EF9BFFEE9AFEED99FDE842F01F
:10048800DC23ACF0D0E0FFD0E0FED0E0FDAB822072
:10049800E7101BEB60BAEC2CFCEF33FFEE33FEEDFC
:1004A80033FD0202C3E803F830E705C0F075F00039
:1004B800EF2FFFEE33FEED33FD40B830E7C280AAE0
:1004C8003F8000004120000042C80000447A00003C
:1004D800461C400047C35000497424004B189680BE
:1004E8004CBEBC205A0E1BCA6753C21C749DC5AEB5
:1004F800FB60065407601C2323120526EB54386062
:10050800091205121205211200FBECF8EDF9EEFABA
:10051800EFCB22EB12052180F1543803241C900400
:10052800C8FE93FC0EEE93FD0EEE930ECE93FF22C3
:100F2200020D3BE493A3F8E493A34003F68001F29D
:100F320008DFF48029E493A3F85407240CC8C333D0
:100F4200C4540F4420C8834004F456800146F6DF9F
:100F5200E4800B0102040810204080901228E47EF5
:100F6200019360BCA3FF543F30E509541FFEE49394
:100F7200A360010ECF54C025E060A840B8E493A35B
:100F8200FAE493A3F8E493A3C8C582C8CAC583CA86
:100F9200F0A3C8C582C8CAC583CADFE9DEE780BE3E
:01122E0000BF
:10053800BB010689828A83E0225002E722BBFE02C1
:09054800E32289828A83E49322F4
:10055100BB010CE58229F582E5833AF583E022505F
:1005610006E92582F8E622BBFE06E92582F8E222A9
:0D057100E58229F582E5833AF583E49322C3
:10057E00BB010689828A83F0225002F722BBFE015C
:02058E00F32256
:10059000BB010A89828A83F0E5F0A3F0225006F7B6
:0F05A00009A7F01922BBFE06F3E5F009F31922B3
:0E05AF00C3E49FFFE49EFEE49DFDE49CFC225D
:1005BD00EB9FF5F0EA9E42F0E99D42F0EC6480C8B5
:0605CD0064809845F02255
:1005D300BB010789828A830206695005E9F802068E
:1005E3005DBBFE05E9F802067589828A83020681EE
:1005F300BB010789828A8302069D5005E9F802063A
:0A06030091BBFE05E9F80206A922EA
:10060D00BB010789828A830206CE5005E9F80206EE
:0A061D00B5BBFE05E9F80206FF2256
:10062700FAE6FB0808E6F925F0F618E6CA3AF622D4
:10063700D083D082F8E4937012740193700DA3A352
:1006470093F8740193F5828883E473740293686066
:06065700EFA3A3A380DF66
:10104500EFB40A07740D121050740A309811A8995C
:10105500B8130CC2983098FDA899C298B811F6300B
:0710650099FDC299F59922E3
:0C065D00E6FC08E6FD08E6FE08E6FF22C9
:0C066900E0FCA3E0FDA3E0FEA3E0FF2204
:0C067500E2FC08E2FD08E2FE08E2FF22C1
:10068100E493FC740193FD740293FE740393FF22BF
:0C069100ECF608EDF608EEF608EFF62295
:0C069D00ECF0A3EDF0A3EEF0A3EFF022D0
:0C06A900ECF208EDF208EEF208EFF2228D
:1006B500D083D082E493F608740193F6087402930C
:0906C500F608740393F674047343
:1006CE00A8828583F0D083D0821206E51206E51249
:1006DE0006E51206E5E473E493A3C583C5F0C5836E
:1006EE00C8C582C8F0A3C583C5F0C583C8C582C876
:0106FE0022D9
:1006FF00D083D082E493F208740193F208740293CA
:09070F00F208740393F274047300
:00000001FF
